:020000040800F2
:10000000F8450820B1020008B769000883690008B4
:10001000B5690008212600082D8A000800000000AC
:10002000000000000000000000000000D1010008F6
:10003000F12C0008000000002D020008997900084A
:10004000CB020008CB020008CB020008C1700008F8
:10005000CB020008CB020008CB020008CB0200084C
:10006000CB020008CB020008CB020008692600087A
:1000700075260008CB020008CB020008CB0200085E
:10008000CB020008CB020008CB020008CB0200081C
:10009000CB020008CB020008CB020008F52C0008B8
:1000A000CB020008CB020008CB020008CB020008FC
:1000B000CB020008817A0008BD7A0008CB02000854
:1000C000CB020008CB020008CB0200086D730008C9
:1000D000CB020008218A0008CB020008CB020008EE
:1000E000CB020008CB020008CB020008CB020008BC
:1000F0004D7B0008CB020008CB0200080000000086
:10010000CB020008CB020008CB020008CB0200089B
:10011000CB020008CB020008CB020008417B00089C
:10012000CB020008CB020008CB020008CB0200087B
:10013000CB020008CB020008CB020008CB0200086B
:10014000CB020008CB020008CB020008CB0200085B
:10015000CB020008CB020008CB020008CB0200084B
:10016000CB020008CB020008CB020008CB0200083B
:10017000CB020008CB020008CB0200080000000000
:10018000CB020008CB020008CB020008CB0200081B
:10019000CB020008CB0200080000000000000000B5
:1001A0000000000000000000CB020008CB020008A5
:1001B000CB020008CB020008CB020008DFF80CD00D
:1001C00000F044FC0048004749C10008F8450820F9
:1001D0002C4B1968086800F05AB880F30988BFF3FF
:1001E0006F8F4FF0000080F311887047000000000F
:1001F00008480068006880F308884FF0000080F32A
:10020000148862B661B6BFF34F8FBFF36F8F00DF04
:1002100000BF00BF08ED00E0DFF80C00016841F40A
:1002200070010160704700BF88ED00E0EFF30980C6
:10023000BFF36F8F134B1A681EF0100F08BF20ED2D
:10024000108A20E9F04F106009B44FF0500080F39D
:100250001188BFF34F8FBFF36F8F0DF005FB4FF089
:10026000000080F3118809BC1968086800F014B810
:100270001EF0100F08BF00F014B880F30988BFF318
:100280006F8F7047080D0020EFF30580704730C86E
:10029000B0E8C04FFFF7A1BF30C8B0E8C04FFFF7CC
:1002A000E7BFB0EC088AB0EC08CAFFF7E6BF000071
:1002B0000648804706480047FEE7FEE7FEE7FEE700
:1002C000FEE7FEE7FEE7FEE7FEE7FEE7397A000815
:1002D000BD0100082DE9F05F0546002092469B46CF
:1002E00088460646814640241BE02846414647464C
:1002F000224600F0EEF853465A46C01A914110D3F8
:1003000011461846224600F0D5F82D1A67EB010871
:100310004F4622460120002100F0CCF817EB0009DF
:100320004E41201EA4F10104DFDC484631462A4636
:10033000434600F000B830BCBDE8C09F10B5431A7A
:10034000934209D28318881803E010F8011D03F8BE
:10035000011D521EF9D210BD40EA01039B0703D0D4
:1003600009E008C9121F08C0042AFAD203E011F8F4
:10037000013B00F8013B521EF9D210BDD2B201E0A0
:1003800000F8012B491EFBD270470022F6E710B59A
:1003900013460A4604461946FFF7F0FF204610BDF3
:1003A000421C10F8011B0029FBD1801A70470EB5C2
:1003B00040F2334102910021CDE900110A460B467B
:1003C00000F0DDF803B000BDC1F30A5210B5C1F36F
:1003D000130140F2FF3341F480119A4201DA002008
:1003E00010BD40F233439A42A2F2334203DC524240
:1003F00000F06FF810BD904010BD00F0004230F0EA
:1004000000400AD0C10D01F56071C0F3160042EA48
:100410000151C20840071143704700200146704750
:1004200030B5041E71F1000404DB4FF0004440427B
:1004300064EB0101141E73F1000405DB1C464FF050
:100440000043524263EB0403994208BF904230BD1F
:1004500001F0004330B421F0004150EA010206D01F
:100460000A0DA2F56072C1F31301002A02DC30BC50
:1004700000207047440F44EAC104C100E01830BCBA
:1004800000EBC25000F035B830B50B4601460020F5
:100490002022012409E021FA02F59D4205D303FA46
:1004A00002F5491B04FA02F52844151EA2F10102C7
:1004B000F1DC30BD202A04DB203A00FA02F10020F2
:1004C00070479140C2F1200320FA03F31943904092
:1004D0007047202A04DB203A21FA02F000217047FD
:1004E00021FA02F3D040C2F120029140084319469C
:1004F00070470029A8BF7047401C490008BF20F082
:100500000100704710B4B0FA80FC00FA0CF050EA19
:10051000010404BF10BC704749B1CCF1200421FA9A
:1005200004F411FA0CF118BF012121430843A3EB95
:100530000C01CB1D4FEA00614FEA102042BF0020A2
:1005400010BC704700EBC35010440029A4BF10BC7E
:100550007047401C490008BF20F0010010BC7047E4
:1005600010B5141E73F1000408DA401C41F10001BB
:1005700092185B411A4301D120F0010010BD2DE912
:10058000F04D92469B4611B1B1FA81F202E0B0FA09
:1005900080F220329046FFF78DFF04460F4640EA76
:1005A0000A0041EA0B0153465A46084313D011464C
:1005B00053EA010019D0C8F140025046FFF789FF05
:1005C00005460E46504659464246FFF773FF08431C
:1005D00005D0012004E020463946BDE8F08D00201A
:1005E000054346EAE0762C4337430A986305E40A5C
:1005F000A0EB08000022FD0A44EA47540A3002D565
:1006000000200146E9E7010510196941DDE90845C7
:1006100000196941BDE8F04DA2E72DE9FE4F804683
:1006200081EA0300C00F0C46009021F0004123F046
:100630000045B8EB0200A94105D24046214690464C
:100640001C460B46024623F00040104347D0270DBE
:10065000C7F30A00C3F30A510290401A01904028E0
:100660006BDAC3F3130040F4801B0098924620B16C
:100670000023D2EB030A63EB0B0B01985946C0F140
:1006800040025046FFF716FF06460D4650465946B3
:10069000019A00F0EDF910EB08006141002487EAAF
:1006A000115284EAE7731A4340D0009A62B3019A68
:1006B000012A4FEA075215DC001B61EB02014FF0E3
:1006C000004202EA0752CDE90042001C41F58011C8
:1006D00032462B46FFF753FF03B000F045B84046C3
:1006E0002146F9E7001B61EB0201001C41F5801374
:1006F00000185B412018A2F5001747EB030140EA00
:10070000D570B6196D4111E06D084FEA360645EA1D
:10071000C0754FEA0752001B61EB0201001C41F556
:10072000801149084FEA30000019514132462B46EA
:1007300003B000F01CB8FFF713BF0098012240007F
:100740000023D0EB020263EBE073009821464FEAEE
:10075000E074B8EB000061EB0401E9E783F00043CB
:100760005BE781F0004158E730BCBDE8C08F30BC8A
:10077000BDE8C04FFFF7DFBF2DE9FE4F81EA03045C
:1007800004F0004421F0004100944FF0000B23F0EE
:10079000004350EA01045ED052EA03045BD0C3F385
:1007A0000A54C1F30A552C44A4F2F3340194A0FB7B
:1007B0000254C1F3130141F48011C3F3130343F452
:1007C000801301FB024400FB034E840A970A44EAAB
:1007D000815447EA8357A4FB076802958D0A05FBFD
:1007E00007854FEA932C04FB0C542705029D4FEA22
:1007F000065847EA1637B5EB08056EEB070C870E6F
:10080000920E47EA811742EA8312A7FB0201B6EB78
:100810000B0164EB00042B0D43EA0C335E1844EB30
:100820001C50DA465146E7FB0201C5F313044FEAB8
:100830000B3343EA14534FEA0432019C43EA0603A4
:10084000A4F10C040294009CCDE900B4FFF797FEDC
:1008500003B000F003B800200146F9E730BCBDE862
:10086000C08F2DE9F04D81EA030404F0004B21F024
:10087000004514464FF0000A23F0004150EA0502FB
:1008800020D054EA01021DD0C5F30A570246C5F331
:100890001303C1F31300C1F30A5640F4801543F467
:1008A0008013A7EB0608101BD64608F2FD3873EB41
:1008B000050002D308F1010801E092185B41B8F18C
:1008C000000F03DA00200146BDE8F08D00204FF450
:1008D0008011064684460EE0171B73EB050705D30F
:1008E000121B63EB050306434CEA010C49084FEA6F
:1008F000300092185B4150EA0107EDD152EA030043
:1009000012D082EA040083EA0501084305D0101BD7
:10091000AB4106D20122002306E000224FF0004343
:1009200002E06FF0010253101AEB06004CEB085185
:1009300010EB0A0041EB0B01BDE8F04DFFF710BED4
:1009400070B521F0004303430CD0C1F30A550024D5
:10095000D5EB040564EB0403D617AD1AB34102DBF3
:100960000020014670BD201841EB025170BD00000F
:100970002DE9F041054621F000400C46284309D0FE
:10098000C4F30A5040F23341884205DD284621462F
:10099000BDE8F0812846FBE740F2FE31884210DCDA
:1009A0000CDB4FEA043040EA155050EA053105D01F
:1009B000104804F0004101430020E9E7002001460F
:1009C000E6E7A0F233404642C6F1400228462146FF
:1009D000FFF770FD07468846284621463246FFF756
:1009E00078FD43463A46FFF7BBFD3246BDE8F0418D
:1009F000FFF760BD0000F03F0EB5C10F80EAE07068
:100A00000844CA07002140F233438DE80E000A462D
:100A10000B46FFF7B4FD03B000BD000030B5041E67
:100A200071F1000404DB4FF00044404264EB01012B
:100A3000141E73F1000405DB1C464FF000435242C4
:100A400063EB04038B4208BF824230BD064C074D66
:100A500006E0E06840F0010394E80700984710348E
:100A6000AC42F6D3FFF7AEFBEC4202080C4302089F
:100A7000202A06DBCB17203A41FA02F043EAE07362
:100A800006E041FA02F3D040C2F12002914008434F
:100A9000194670472DE9F04D00231A461B1A8A416A
:100AA00003DB00200146BDE8F08DC1F30A52C1F31B
:100AB000130141F480154FF0000BD10702D100184B
:100AC0006D41521E0027044640F2FF11384601EBEB
:100AD000620A3E468046024600204FF48011FFF72E
:100AE000F8FCC2197141BB1846EB0100B4EB030CD2
:100AF00075EB000C04D3E41A65EB000517460E46AF
:100B0000241908F101006D4180463428E3DDF9190C
:100B100046EB0600091BA84103D24FF0FF321346F3
:100B200001E0002213461BEB070046EB0A51BDE82B
:100B3000F04DFFF715BD70B58C1810F8015B15F07E
:100B4000070301D110F8013B2A1106D110F8012B3F
:100B500003E010F8016B01F8016B5B1EF9D12B0764
:100B600005D40023521E0DD401F8013BFAE710F81A
:100B7000013BCB1A921C03E013F8015B01F8015B07
:100B8000521EF9D5A142D8D3002070BD0023B3EB8B
:100B9000920F1FD093085B4290ED000A0133B0EE34
:100BA000C00A81ED000A90ED010AB0EEC00A81EDA5
:100BB000010A90ED020AB0EEC00A81ED020A90ED42
:100BC000030A00F11000B0EEC00A81ED030A01F142
:100BD0001001E1D112F0030208BF7047524200BF7A
:100BE00090ED000A013200F10400B0EEC00A81ED80
:100BF000000A01F10401F3D1704700002DE9F04132
:100C00000027D0E900454FEA930E8068A7EB930CCC
:100C100003F00303C3F1000895ED005AD5ED010A76
:100C200095ED026A95ED037A90ED000A90ED011AB8
:100C300090ED022A90ED033A90ED044ABEF1000FC8
:100C400062D06646174600BFD1ED001A61EE052A54
:100C500062EE200A24EE077A22EE055A013660EE93
:100C6000213A72EEA32A63EE063A24EE066A70EE8B
:100C7000A20A73EEA00A37EE207A61EE210A62EE34
:100C8000211A87ED007AD1ED012A60EE223A70EE4A
:100C9000A30A63EE073A24EE077A35EE205A35EEC2
:100CA000235A36EE056A21EE225A62EE222A87ED99
:100CB000016AD1ED020A60EE203A35EE235A63EE66
:100CC000063A24EE066A31EE855A61EE201A35EEB8
:100CD000235A37EE057A87ED027A91ED035A01F136
:100CE000100160EE053A71EEA31A63EE073A72EE58
:100CF000A11A71EEA31A36EE216A87ED036A07F195
:100D00001007A1D101E000BF1746143033B34646A7
:100D1000F0EE451A91ED005AF0EE462A62EE200AF6
:100D200024EE077A013601F1040121EE216A60EE1A
:100D3000053A36EE236A63EE223A30EE866AF0EE2A
:100D4000610A33EE866A37EE066AB0EE627A87EDA4
:100D5000006A07F10407DBD104E000BFF0EE601A7F
:100D6000F0EE472A85ED005AC5ED011A85ED026ABD
:100D7000C5ED032A013C05F11005114608BFBDE889
:100D8000F08149E7B0B58260016005460901184667
:100D90001C46FFF7FAFA6C60B0BD0000B0B5E1B1D7
:100DA0004FF0000C02EB4C0432F81C300CF1020C3A
:100DB00064888C4523F0030324F0030450F803E017
:100DC0000559C55040F804E003440444D3F804E056
:100DD00065685D60C4F804E0E4D3B0BD2DE9F0417E
:100DE0000588984616460C460746012A0CD1E5B3FD
:100DF000201D294690ED000A0139B1EE400A80ED30
:100E0000000A00F10800F5D1FF2D0CDDB5F5806F6B
:100E100010DBB5F5805F22D0B5F5006F11D0B5F5C8
:100E2000806F17D021E03F2D10DC102D12D0202D27
:100E300007D01AE0B5F5807F03D0B5F5007F0ED05E
:100E400013E03846214600F007F90EE0402D06D0A9
:100E5000802D0AD13846214600F030F805E07A6846
:100E600020462946012300F0B9FBB8F1000F04D059
:100E7000BA68B9892046FFF791FF012E1CD100EE18
:100E8000105A002DB8EE400A08BFBDE8F081B7EE59
:100E9000001A81EE000A00BF94ED001A94ED012AB9
:100EA000013D20EE011A20EE422A84ED001A84ED65
:100EB000012A04F10804EFD1BDE8F0812DE9F047E3
:100EC0002DED088B804600880023D8F8042001EB24
:100ED000800A4FEA5009B3EBD00F00F0AD80C7088D
:100EE00001EB890C0AEB890E7C420027C8190AEB3A
:100EF00007060CEB07030EEB0705013496ED000A1D
:100F000090ED004A96ED011A90ED015A96ED022AF5
:100F100090ED026A96ED033A90ED037AD5ED000A62
:100F2000D5ED011AD5ED022AD5ED033AD3ED004AED
:100F3000D3ED015AD3ED026AD3ED037A34EE00BA51
:100F400037EE038A36EE029A35EE01AA34EE400AF5
:100F500035EE411A36EE422A37EE433A33EEE76A6F
:100F600032EEE67A80ED00BA80ED01AA80ED029AB9
:100F700080ED038A34EEA0BA35EEA1AA37EEA38A3B
:100F800036EEA29A02EB070071EEE51A70EEE40A63
:100F900007F1100783ED00BA83ED01AA83ED029AF1
:100FA00083ED038A90ED008A90ED019A20EE094AC4
:100FB00021EE085A21EE091A20EE080A35EE444ABD
:100FC00030EE010A21EE891A20EE885A61EE881A65
:100FD00060EE890A86ED014A86ED000A35EE010AC7
:100FE00030EEE11A85ED010A85ED001A90ED020A56
:100FF00090ED031A22EE014A23EE005A23EE013A45
:1010000022EE002A35EE444A32EE032A26EE013A59
:1010100027EE005A26EE000A27EE011A86ED034A53
:1010200086ED022A35EE032A31EE400A85ED032AC9
:1010300085ED020A7FF45AAF08464946022300F0C4
:10104000CDFAD8F80420504649460223BDEC088B5F
:10105000BDE8F04700F0C2BA2DE9F04F81B02DEDA8
:10106000088B92B0B0F800C00590406891ED000A7E
:1010700091ED011A4FF000094FF0000B4FEA5C02AE
:1010800006906FF001000F9101EB820300EB9C07CB
:1010900003EB8205A9EB57006FF0030793ED004ABD
:1010A00093ED015A95ED002A95ED013A05EB820486
:1010B000119007EB820007EBC20E6FF0070794ED6B
:1010C000007AD4ED010A07EB0216109031EE036AA4
:1010D00070EE021A31EE431A30EE420A0E9602EB1F
:1010E000420676EE052A71EE843A31EE442A30EE5D
:1010F000053A31EE041A30EE450A36EE456A71EED5
:10110000C41A07EB86004FEA9C074FEA860A73EE83
:10111000873A72EEA02A32EE072A33EE603A31EEB9
:10112000471A30EE200A0D9001970293049597001C
:101130000394C1ED003AC1ED012A83ED003A83ED3D
:10114000012A31EEC73A36EE602AD10085ED003A29
:1011500085ED012A84ED000A84ED011A0024E0E007
:101160000F98089407920B915A46CB46109900EBC2
:101170000E0400EB01090D990A97CDF830E0CDF887
:1011800024A0D4ED002A14ED015ADDF838A0D9EDE1
:10119000001A59ED017A47180839D7ED010A00EB1A
:1011A0000A0ED7ED006A0798AAF1080ADEED014A97
:1011B0009EED004A71EEA03A37EEA69A73EEA25A5F
:1011C00075EEA45AC9ED005A54ED015A9EED008AFD
:1011D00079EE255A75EE885A49ED015AD94693465B
:1011E000D3ED035A93ED028A09F1080902F1180BB5
:1011F00026EE25AA27EE08BA27EE257A26EE086AFB
:101200003BEE0AAA36EE476A32EEE47A85ED02AA90
:1012100085ED036A31EEE06A77EEE60A76EE451A6E
:1012200070EE876A71EE841A66EE887A21EEA5AABE
:1012300066EEA55A61EE881A7AEE677A71EEA51A03
:10124000C4ED007A44ED011A089CD6ED051AD6EDDE
:10125000045A103462EE216A63EE257A23EE213AB5
:1012600022EE252A77EEA66A32EE432A33EEE23AE0
:10127000CCED026A8CED032A39EE452A33EE643A4E
:1012800032EE442A63EE653A23EE213A62EE212AD9
:1012900022EE252A73EEE22A33EE422AC7ED012A16
:1012A00087ED002A0A9F90ED072A90ED063A1098E4
:1012B000083760EE021A61EE032A21EE021A20EED0
:1012C000030A083872EEA11A30EE410A37EE601AAE
:1012D000C8ED021A88ED030A34EE450A21EE034AEE
:1012E00021EE021A30EE460A20EE025A20EE030AE0
:1012F00035EE444A30EE010A8EED014A8EED000AC9
:10130000DDF830E010901198AEF1080E0130119028
:101310000D910B99CDF838A0DDF824A008310AF121
:10132000080A0F9B119803EB090203EB010CDD196E
:1013300003EB0A08069B00289CED020A92ED022AA4
:1013400095ED024A98ED026A9CED031A92ED033A7C
:1013500095ED035A98ED037A03EB040672EE000A4A
:1013600073EE013A33EE411A32EE400A70EE841AFF
:1013700031EE042A70EEC40A30EE453A31EE444AAA
:1013800071EE861A33EE071A30EEC63AC2ED021A33
:10139000D5ED031AD8ED032A73EEA11A71EEA21A45
:1013A000C2ED031A73EEC51A30EE055A32EE460A44
:1013B00003EB0B024B4434EE066A31EEC72A35EEDE
:1013C000477A7FF4CDAE93ED024A93ED035A0F981E
:1013D000042367EE050A66EE041A26EE055A27EE88
:1013E000044A34EE054A31EEE06A85ED024A85EDA5
:1013F000036A019D96ED044A96ED055A294623EEAF
:10140000056A22EE047A23EE043A22EE052A33EE30
:10141000022A37EE464A8CED022A8CED034A92ED01
:10142000062A92ED073A069A21EE034A20EE025A66
:1014300021EE021A20EE030A31EE000A35EE442AAC
:1014400088ED020A88ED032A00F0C8F8059C02988E
:1014500029460423626800F0C1F8626804982946AE
:10146000042300F0BBF8626803982946042312B0F5
:10147000BDEC088B01B000F002B800F0AFB830BC92
:10148000BDE8C04FFFF7F9BFF0B54C1E4FF0000CA0
:1014900090ED000A00F1040EBCEB940F40D0A708B9
:1014A000012625464FF0000C66F301057E42042715
:1014B0009EED001A9EED012A9EED023A9EED034A32
:1014C00001360EF1100EB4EEC10AF1EE10FABCBFF7
:1014D000A7F1030CB0EE410AB4EEC20AF1EE10FA25
:1014E000BCBFA7F1020CB0EE420AB4EEC30AF1EEA3
:1014F00010FABCBFA7F1010CB0EE430AB4EEC40A67
:10150000F1EE10FAB4EEC40AB8BFBC460437F1EEEF
:1015100010FAB8BFB0EE440A002EC9D100EB850E18
:1015200014F0030012D040429EED001A0EF1040E9A
:10153000B4EEC10AF1EE10FAB8BF01EB000C00F1F5
:101540000100B8BFB0EE410A0028EDD182ED000ADB
:10155000C3F800C0F0BD00000023B3EB910F22D010
:1015600080B58B089FED1C0A21F0030CC3F1000E1F
:10157000034600BF93ED001A93ED012A93ED023A62
:1015800093ED034A10331EF1010E30EE010A30EEE6
:10159000020A30EE030A30EE040AEBD100EB8C00B5
:1015A000BDE8804001E09FED0C0A11F0030309D073
:1015B0005B4200BF90ED001A013300F1040030EEF1
:1015C000010AF7D101EE101AB8EE411A80EE010AB5
:1015D00082ED000A704700BF000000002DE9F04FC7
:1015E00081B02DED108BA0B09FED050ACDE903323F
:1015F0008C46019004301B910290084602E000BF27
:10160000F304353F4FEADC064FEACC074FF0000BFE
:10161000F30006EB860235010896A3EBDC00D1004F
:10162000C0001A9006EB46007601C4000001224675
:10163000029CCDE91E7CCDE90C01CDE91C6500BF03
:101640000C9804EB03091F461A9B04EB010826447F
:10165000254404EB020E14ED017ADDF87CC011463E
:1016600056ED010A1EED012A18ED013A19ED014A65
:1016700015ED016A04EB030A20443B46E3441AEDEE
:10168000011A10ED015A77EE204A74EE032A37EE64
:10169000607A72EE011A76EE053A32EE411A34EEB5
:1016A000432A36EE455A72EEA15A74EEA36A34EE1E
:1016B000E33A72EEE11A76EEA57A76EEE55A44ED5B
:1016C000017A46ED015ADAED005ADEED006AD8EDF6
:1016D000007A99ED008A90ED009A95ED00AA96EDBA
:1016E00000BA94ED00CA36EEA5DA38EE27EA3AEEF3
:1016F00009FA7CEE0B8A36EEE54A78EE673A72EE2E
:10170000415A32EE011A3CEE4B6A7EEE0D9A78EEAB
:101710008FAA3EEE4DDA73EE842A78EECF6A65EE3C
:10172000800A33EEC42A21EE001A7AEEA9BA73EECB
:101730000D4A7AEEE99A33EE4D3A62EE802A76EE61
:10174000E15A71EEA61A22EE002A37EE604AC4ED85
:1017500000BAC6ED009A45ED014A7AEE494A00ED1D
:10176000013A37EE203AC5ED005AC0ED001A76EE88
:10177000021A36EE422A74EEA27A34EEE27A73EE60
:10178000275A33EE673A74EE070A34EE474A49EDBA
:10179000015A0AED013A35EE013A48ED010A0EED23
:1017A000014A35EE411A31EEC37A33EE213A32EE78
:1017B000414A31EE021A89ED007A8AED003ADDE9FC
:1017C0001C651E9F1B980D9988ED004A8EED001A2E
:1017D0003C448345FFF434AFBCF1400FC0F0C981F5
:1017E0000398DDF804800025012707920E9380B24C
:1017F00006900898C0EBC000C00005900698049CB5
:10180000CDF824800A97DFEDDE2A054405EB850339
:1018100005EB45020B95D900D00004EBC30304315E
:10182000043004EB010E04EB451104EB000CC5EB96
:10183000C50091ED000A04EB0511DCED006AC44619
:10184000DEED005ADDF81C808DED1A0A91ED000ADC
:1018500004EBC5018DED190A91ED000A04EBC001FE
:10186000C00004308DED180A91ED000A04EB02115E
:1018700020448DED170A91ED000A110104EBC2021C
:1018800004318DED160A93ED000AEB0004EB01091B
:101890006901043304318DED150A92ED000A2A0125
:1018A0002344043222440C448DED140A94ED000AC2
:1018B0008DED130A92ED000A8DED120A93ED000AE8
:1018C0003B468DED110A90ED000A8DED100A99ED61
:1018D000000A8DED0F0ADDE90C15059F1D980CEB34
:1018E000060B0CEB01090CEB05020CEB070E9CED53
:1018F00002DA9CED03EADDED1A3ADDED134A1C9E97
:101900009BED02FADEED027A92ED029A99ED02BAAF
:101910000CEB000A0E989AED02CA7DEE0FBA0CEBA2
:1019200000040CEB080090ED028A94ED02AA7CEE14
:101930000BAA7BEEAADA78EE278A7AEE099A78EE7D
:10194000677A3AEE498A79EEA8CA38EE670A78EEE5
:10195000277A79EEE88A7DEEACEA7DEEECCA20EEDD
:10196000220A67EEA27ACCED02EA63EEAC0A64EEDC
:10197000ACCADBED03DA9EED039A90ED03AAD2ED3B
:1019800003EAD4ED03FA99ED031A9AED032A32EE35
:10199000013A3EEE2D4A7AEE099A3FEEAE8A32EED9
:1019A000411A38EE295A34EE036A34EE433A38EEDF
:1019B000698A3BEEEA4A36EE457A36EE055A3AEE49
:1019C000496A3FEEEE9A39EE46AA64EE871A39EE7E
:1019D000066A23EE877ADDED124ADDED193A8CEDC9
:1019E000035A34EE085A3DEE4F9A34EE484A26EE3A
:1019F000222A37EE6C6A30EEA17A73EE680A7CEE2A
:101A00004B1A38EE833A3EEE6DCA2AEE22AA39EE20
:101A1000008A39EE400A24EE85BA23EEA0DA23EEDE
:101A2000855A64EEA00ADDED0F4ADDED163A8BED26
:101A3000027A8BED036A31EE02EA31EEA77A31EEDB
:101A4000421A31EEE72A7CEE4A1A3DEE4B6A30EE3E
:101A5000855A3CEE0ABA38EE0EFA38EE4E8A70EE2F
:101A6000017A30EE410A32EE211A64EE840A23EE46
:101A700083DA8AED025A23EE844ADDED183A24EE29
:101A8000833A7BEE478A8AED036A37EE0B7A3DEEA6
:101A9000605ADDED110A33EE043A23EEA86A23EE14
:101AA0008FDA89ED023ADDED103A89ED035A20EE26
:101AB0008F4A60EEA80A36EE443A3DEE204ADDED4C
:101AC000170A23EE885A84ED024A84ED033A20EE89
:101AD000876A60EE880A23EE877A31EEC28A30EE9A
:101AE000874ADDED150A36EE453A25EEA75A25EE72
:101AF000887A8EED024A8EED033A26EE804A20EE79
:101B0000886A60EEA70A36EE452A9DED146A30EE2B
:101B1000873A82ED023A82ED032A26EE015A26EE3A
:101B2000811A26EE000A30EE010A35EE442A80EDD5
:101B3000020A80ED032A1E9884441F9803441B98D0
:101B40008342FFF4CBAE0A9FDDF8248008980B9DFA
:101B5000013708F108088742FFF450AE0398DDF81A
:101B600020C09FED070AC00003901F983F283FF652
:101B700049AD20B000F006B801B000F009B800BFD0
:101B8000F304353FBDEC088BBDEC08CBFFF7F4BF89
:101B900030BCBDE8C08F0000B0B52DED028B1546FE
:101BA0000022B2EB910F25D08A089FED2A0A044645
:101BB000534221F0030200BF94ED001A94ED012A74
:101BC00094ED023A94ED034A1034013321EE011AE8
:101BD00022EE022A30EE010A23EE031A30EE020A48
:101BE00024EE042A30EE010A30EE020AE4D100EBC2
:101BF000820001E09FED170A11F003020AD0524261
:101C000090ED001A013200F1040021EE011A30EECD
:101C1000010AF5D101EE101AB8EE411A80EE018AE0
:101C2000B5EEC08AF1EE10FA02DA9FED0A0A0CE076
:101C3000B0EE480A07F080FEB4EEC00AF1EE10FAEA
:101C400003D7B0EE480A07F077FE85ED000ABDEC39
:101C5000028BB0BD000000002DE9F043DFF8FC93DB
:101C6000FF4E484699F80120017983B000F5C86419
:101C7000FC4D402A688900F089813DDC0A2A71D038
:101C800009DC0A2A80F07E82DFE802F089BC7B7FD3
:101C900083B4FDFCFBFAF44F162AD7F8C83200F0E3
:101CA000718217DC122A04BF43F00100C7F8C80292
:101CB00000F0688205DC0B2A6FD0112A73D000F087
:101CC00061BA132A00F05E82152A08BF09F008FAEB
:101CD00000F058BA172A00F06B81182A00F01E8213
:101CE000192A00F09181302A04BF86F8BA1143F016
:101CF00008007AD000F046BA0123722A00F0308240
:101D00001DDC4FF000084FF07E07552A71D009DC2A
:101D1000A2F15001052980F03582DFE801F0D89763
:101D2000D0FDD400562A00F0AC81572A7ED0682A14
:101D300000F0DA81692A00F0B68100F023BA822A25
:101D400000F0E4810FDC732A00F00E82752A00F0A7
:101D50005E81762A00F09281802A08BF08F0D8FEC2
:101D600000F010BA76E0832A00F0CC81842A00F0DB
:101D7000D181882A00F0C281EA2A00F0F88100F0BF
:101D800001BA08F07FFC00F0FDB908F019FB00F083
:101D9000F9B908F0B3FF00F0F5B92FE003E009F05E
:101DA000F1FD00F0EFB9B8B1621EA9F1010110F028
:101DB000010F03D011F8010F02F8010F6889C0F379
:101DC000470048B14B78537011F8023F401E02F8AB
:101DD000023F10F0FF00F5D169896981A34806F040
:101DE00047FED7F8C80240F08000C7F8C80200F0EC
:101DF000C9B99EE009F064FC00F0C4B909F052FDD5
:101E000000F0C0B9C8B1621EA9F1010110F0010FC4
:101E100003D011F8010F02F8010F6889C0F34700E1
:101E200058B14B78537011F8023F00E03BE0401E80
:101E300002F8023F10F0FF00F3D1698969818B48F5
:101E400006F016FE05F09CFD00F09CB909F0FEF9C5
:101E500000F098B9E0B1621EA9F1010110F0010F84
:101E600003D011F8010F02F8010F6889C0F3470091
:101E700070B14B78537011F8023F02F8023F03E053
:101E800035E137E117E012E0401E10F0FF00F0D11D
:101E900069896981754806F0EBFD99F80400A6F898
:101EA0002E0100F06FB908F0E1FC00F06BB908F00A
:101EB00037FC00F067B909F0B7F800F063B909F032
:101EC00051FB00F05FB909F003F800F05BB9B8B15D
:101ED000611EA9F1010210F0010F03D012F8010FE9
:101EE00001F8010F6889C0F3470048B153784B707F
:101EF00012F8023F401E01F8023F10F0FF00F5D13A
:101F000069896981594806F0B3FDA17A607ACDE903
:101F100000012079617900E008E000EB012080B247
:101F2000237AE279A17905F0D1F82BE108F036FEA9
:101F300028E1B8B1621EA9F1010110F0010F03D030
:101F400011F8010F02F8010F6889C0F3470048B18A
:101F50004B78537011F8023F401E02F8023F10F018
:101F6000FF00F5D169896981404806F081FD27703D
:101F7000FF20607084F8028084F80380207167710C
:101F800006216981394806F073FDAAE0286A401CE1
:101F90002862A869401CC21700EB526222F07F023F
:101FA000801A884202D0E869401CE861A961E9E032
:101FB000B8B1611EA9F1010210F0010F03D012F8AF
:101FC000010F01F8010F6889C0F3470048B1537849
:101FD0004B7012F8023F401E01F8023F10F0FF0064
:101FE000F5D169896981214806F042FD207986F89A
:101FF0002002607986F82102A07986F82202E07931
:1020000086F823026DE000BF08F050FCBAE0B8B1DA
:10201000611EA9F1010210F0010F03D012F8010FA7
:1020200001F8010F6889C0F3470048B153784B703D
:1020300012F8023F401E01F8023F10F0FF00F5D1F8
:1020400069896981094806F013FD2079617900EBFF
:102050000120A6F89402A079E17909E0842C0620F9
:1020600028000020700C0020900D0020C4320620B3
:1020700000EB0120A6F8960233E000BF08F058FC00
:1020800080E0277056206070A37084F8038096F873
:102090002C01207157306071A771072169813B487D
:1020A00006F0E6FC6EE0B8B1621EA9F1010110F085
:1020B000010F03D011F8010F02F8010F6889C0F376
:1020C000470048B14B78537011F8023F401E02F8A8
:1020D000023F10F0FF00F5D1698969812B4806F0B5
:1020E000C7FC0AF087FF4DE008F000F94AE009F06C
:1020F0005BF947E008F07CFC44E000BF09F0DAF946
:1021000040E000BF08F054FA3CE000BF08F090F94E
:1021100038E000BF0AF07CFF34E000BF97F80C0302
:1021200001282FD105F032FC172002F0B5F81E204F
:1021300002F0B2F8164800680AF044FA1548006840
:102140000AF040FA144800680AF03CFA13480068A4
:102150000AF038FA124800680AF034FA12E000BFB8
:1021600009F024F80EE000BF08F028FB0AE001297E
:1021700008BFAB8006D0022908BFEB8002D003293C
:1021800008BF2B81012003B0BDE8F083C4320620D4
:102190000400002014000020080000200C00002093
:1021A0001000002010B584B000203B4B019002903D
:1021B00003900DF103010622CDF8000000EB030CA3
:1021C000801C9CF890454C709CF891C5521E01F8FB
:1021D00002CF12F0FF02F1D19DF804008DF800004B
:1021E0009DF805008DF801009DF80E008DF80200A5
:1021F0009DF80F008DF803000421684600F011FAE5
:10220000264C04212070000A60709DF806008DF8AD
:1022100000009DF807008DF801009DF80C008DF876
:1022200002009DF80D008DF80300684600F0F9F9F2
:10223000A070000AE0709DF808008DF800009DF87D
:1022400009008DF801009DF80A008DF802009DF844
:102250000B008DF803000421684600F0E2F92071BC
:10226000000A60719DF807008DF800009DF80800D5
:102270008DF801009DF80B008DF802009DF80C0010
:102280008DF803000421684600F0CBF9A071000A24
:10229000E07104B0204610BD0070FF1FB815082083
:1022A0002DE9F04F664800262DED028B85B00068C1
:1022B000B34601218143634A40F20A2002EB014206
:1022C0000192614A01EB410102EB813100910A2147
:1022D000DFED5E8A000A3546B046CDE902015C4872
:1022E000B0F82E1121FA08F111F0010F7ED0B8F1EB
:1022F000000F08BF019C11D0B8F1010F08BF009C6E
:102300000CD0B8F1020F04BF009901F5804405D04C
:10231000B8F1030F04BF009901F5004400EB8809F0
:10232000002799ED360AD9ED050AD9F8C40120EE47
:10233000200AD9ED180A002820EE280A80EE208A0B
:1023400084BF08F1010000F0FF0A6DD934F9020BD7
:10235000DFF800C100EE100A0CEB0B010BF1020BD1
:10236000B8EEC00A20EE080ABDEEC00A10EE100A50
:102370008873020A10443044CA73C6B2BBF5007FAA
:102380004DD34FF07E0B8CF800B070208CF801001C
:1023900003988CF8020002988CF803002E488CF801
:1023A00004A001888CF80510090A8CF806108178C1
:1023B0008CF80710C1788CF8081001798CF8091096
:1023C00041798CF80A1080798CF80B00280A06F104
:1023D00070018CF80C50CAB28CF80D0000210CF181
:1023E0000100062346783244D2B200E01CE010F827
:1023F000026F5B1E3144C9B2F4D150188CF80E0242
:10240000681C85B28CF80FB24FF40471114806F0C5
:102410002FFB4FF0000B5E46012009F04FFFD9F86B
:10242000C4017F1CB84291D808F10108B8F1030F2C
:10243000FFF455AF05B0BDEC028B00F00FB8000003
:10244000340C0020C81B0020C81B02200080BB44A5
:102450002800002004200620A40C002030BCBDE889
:10246000C08F00002DE9F047694C7E25742025704F
:1024700060706848002601882171090A61718178BD
:10248000A171C178E171017921724179617280791C
:10249000A0720AF0D1FC604B002704F54B7C00BF12
:1024A00006EBC60003EB870100EB0610204491F811
:1024B000608580F80B8091F8618580F80C8091F838
:1024C000628580F80D8007EB870891F86325827399
:1024D0001CF80820C27391F8809880F8109091F849
:1024E000819880F8119091F8829880F8129091F874
:1024F0008328E044C27498F80120027591F8B098DE
:1025000080F8159091F8B19880F8169091F8B298EB
:1025100080F8179091F8B328027698F80220427656
:1025200091F8109780F81A9091F8119780F81B9005
:1025300091F8129780F81C9091F81327427798F839
:102540000320827791F8E028C27791F8E12880F89B
:10255000202091F8E22880F8212091F8E31880F8F3
:10256000221098F80410761C7F1C80F82310032F8B
:1025700096D393F8240284F8560093F8250284F841
:10258000570093F8260284F8580093F8270284F83D
:1025900059009CF80F0084F85A00204890F89012D7
:1025A00084F85B1090F8911284F85C1090F8921205
:1025B00084F85D1090F8930284F85E009CF8106037
:1025C00084F85F605C20A0700020E07084F86000F8
:1025D0000F4800212F22437894F8607010F802CF42
:1025E0003B4484F8603043786144C9B2521EF3D151
:1025F00094F860000844304484F8600084F8615026
:102600006221034806F034FA0120BDE8F08700009B
:10261000C41C0620A40C0020900D002028000020DF
:10262000FEE730B4044600234FF6FF7000298EBF4A
:102630004AF2010C30BC7047E25C5040042210F0BA
:10264000010F14BF8CEA5000400810F0010F14BFB6
:102650008CEA50004008521EF1D15A1C93B28B42B2
:10266000EAD330BC70470000014801F07CB900009B
:102670007C4B0620014801F076B90000DC4B0620B7
:102680002DED028B0027DFF84881524D9FED528AD5
:10269000524E534CDFF84CA1DFF84CB1DFF84C91AF
:1026A0004FF0FF31D8F8000009F05EFE95F82002E7
:1026B000A0BB95F8B801012811D1D4F8980DD5F830
:1026C000B411401C884238BFC4F8980D07D3D4F821
:1026D000C802C4F8987D40F02000C4F8C8024448FD
:1026E00004F022FCB060012007F0F4FD94F8C80269
:1026F00010F0200F12D095F82C0101280ED100F017
:1027000007FB94F80C0348B9FFF7ACFEFFF7C8FDD0
:10271000D4F8C80220F02000C4F8C80295F82002BE
:102720000128BDD107F0D6FD7068401C706095F897
:1027300023128142B4D2F76095EDA40A30EE480A24
:1027400085EDA40A05F022F90AF054FC05E00A2000
:1027500009F0B4FDF068401CF06094F8060318B965
:10276000F068B0F5C87FF2D300F0D2FA0A2009F081
:10277000A5FDFFF777FEFFF793FD05F07DFA94F8CE
:102780000C0301281BD005F001F94FF47A6009F021
:1027900095FD172001F080FD1E2001F07DFDDAF887
:1027A000000009F00FFFDBF8000009F00BFF1148F3
:1027B000006809F007FF1048006809F003FF642073
:1027C00009F07CFDD9F8000009F0FCFE68E7000084
:1027D0001C00002028000020022B073D440C002094
:1027E000900D002014000020080000200C000020A4
:1027F000A40C0020100000200400002086B09FEDF3
:10280000F70AF7498DED000A4FF400408860F54A59
:10281000002002F12001F44BF44C4FF00068A2F1CB
:10282000300CA1F14007A1F13005A1F1100B0646D3
:1028300047F8208045F8206004EB800942F82060CA
:1028400089ED6E0A4BF8206043F820600CF80060B8
:10285000DFF89C9341F8206049F8206009F13009C5
:1028600049F82060401C0428E2D3322009F026FDFC
:1028700005F086F8012001F0E3F905F087F8DD495D
:1028800000200880DC490860DFF87093C9F8000078
:10289000DB490870DB48C7F800804188490379604C
:1028A000C088D94A4003B860D2E90101D74E136805
:1028B0004FF4804C06EB8303D268D3F8C43106EBA7
:1028C0008000BCFBF3F3C4F82831D0F8C4314FF4D6
:1028D0000050B0FBF3F306EB8101C4F82C31D1F8C2
:1028E000C411B0FBF1F1C4F8301106EB8201D1F84C
:1028F000C411B0FBF1F0C4F8340194F80C030128C2
:1029000008BF05F03DF8DFF80893DFF808A340F6AC
:10291000FF7800BFC0484FF0FF31006809F024FD88
:10292000AF4C207880B1BD484FF4004101807A68F7
:10293000530B43808180BA68520BC280018143816E
:102940008181C28100202070AC49B44809684FF0F1
:10295000000B00EB41050021288839F81120226185
:1029600022692AF812002269324492F84520032A8B
:10297000226907D0324492F84520002A08BFA0609F
:1029800000F084B9002A226922D057F8223041F69B
:10299000FF7283FB0223520B42EAC34223691218DF
:1029A00047F82320226957F82220A0EB62302269E1
:1029B00006EB8202D2F8C421B2F5005F7ED0226914
:1029C00006EB8202D2F8C421B2F5006F77D0D5E0D1
:1029D00057F8222082FB0823120B42EA0352236994
:1029E000121847F82320226957F82220A0EB223042
:1029F000226906EB8202D2F8C421B2F5804F10D0D2
:102A0000226906EB8202D2F8C421B2F5005F60D0E1
:102A1000226906EB8202D2F8C421B2F5006F2BD0F6
:102A2000ACE07F4A2369D4F810C052F823204BF25F
:102A3000EC031218A2FB03327A4A46F2D91E52F86E
:102A40002CC00CFB0EFCB3EB0C03D4F810C042F806
:102A50002C30236902EB8303D3F800C04FEA2C4CDF
:102A6000C3F800C0D4F810C002F1200343F82C00D2
:102A7000206952F8200081E0694A2369D4F810C027
:102A800052F8232041F683331218A2FB0332654A21
:102A90004CF6F80E52F82CC00CFB0EFC13EB0C039A
:102AA000D4F810C042F82C30236902EB8303D3F82A
:102AB00000C04FEA2C4CC3F800C001E00AE034E04B
:102AC000D4F810C002F1200343F82C00206952F81A
:102AD000200053E0524A2369D4F810C052F8232052
:102AE00049F269631218A2FB03324E4A42F6D34EF2
:102AF00052F82CC00CFB0EFCB3EB0C03D4F810C046
:102B000042F82C30236902EB8303D3F800C04FEA6C
:102B10002C4CC3F800C0D4F810C002F1200343F8D5
:102B20002C00206952F8200028E03D4A2369D4F89F
:102B300010C052F8232043F246231218A2FB03329E
:102B4000384A49F6723E52F82CC00CFB0EFC13EBCF
:102B50000C03D4F810C042F82C3052F82130D4F8CD
:102B600010C04FEA234342F82C30D4F810C002F1D1
:102B7000200343F82C00206952F820001C4B2269E6
:102B800003EB8202D2F800C00CF1010CC2F800C0C5
:102B90002269D4F810E053F822C0144A02EB8E02E6
:102BA000D2F82821944571D3D4F810C0002243F8FC
:102BB0002C2002B2206903F1300310F0FF0C2069D1
:102BC00053F8200030D0BCF1010F34D0BCF1020F1B
:102BD0003CD0BCF1030F46D052E0000000000000E2
:102BE000300C0020F89B0320881B0020900D002053
:102BF000289C03209A0C00209C0C0020A00C002094
:102C0000940C0020283A0620B0EB00082800002091
:102C1000A0EC0008889C032018000020383A062009
:102C2000089C0320E89B0320DFF8B4C0D4F804E03C
:102C30000CEB0E4C07E0D4F804C00CEB4C0EDFF8A4
:102C4000A4C00CEB8E3C2CF8102019E0D4F804C082
:102C50000CEB4C0EDFF88CC00CEB8E3C0CEB400008
:102C600000F580400BE0D4F804C00CEB4C0EDFF80C
:102C700074C00CEB8E3C0CEB400000F50040028071
:102C8000206903EB80000268521C0260E068491C66
:102C9000401CAD1CE0600829FFF45EAEB0F5004FAB
:102CA00016D304F0D5F910490020A1F130020860D4
:102CB00010604860506088609060C860D060E060DC
:102CC00062680120904360600848006809F0E6FBF4
:102CD0000BF1010BBBF1800FFFF43DAE1AE60000D3
:102CE000C81B0020C81B0220589C03201C00002089
:102CF0007047000010B5202001F020F9024841681B
:102D0000491C416010BD0000C80C00207047000045
:102D10002DE9F04F2DED0A8B93B09FEDFEAAFE48F2
:102D20000068012121EA00000025DFEDFCAAFC4932
:102D300001EB00410791FB4900EB400001EB8030C3
:102D4000DFEDF99ADFEDF98A9FEDF98ADFF8ECA360
:102D50009FEDF8BADFEDF8BA4FF47A7BAAF5C039E7
:102D60009FEDF79AF74F049007EB850494ED050A61
:102D7000D4ED360A20EE200A60EE2A0AF5B3D4F824
:102D8000C42182B3049800EB8530A0F5804102395C
:102D9000A9F1040012F0010F0AD031F9022F00EE60
:102DA000102AB8EEC00A20EE200A80ED010A001DAC
:102DB000D4F8C421520816D0B1F9023000EE103A0E
:102DC000B8EEC00A20EE200A80ED010A31F9043F76
:102DD00000EE103AB8EEC00A20EE200A80ED020A9A
:102DE0000830521EE8D1D4F8C401B0F5805F7CD021
:102DF000B0F5005F61D0B0F5804F00E001E033D066
:102E0000B0E0D7F8C431002BEDD00798811EA9F1AE
:102E1000040013F0010F0AD031F9023F00EE103A1E
:102E2000B8EEC00A20EE200A80ED010A001DD7F896
:102E3000C4215208D7D000BFB1F9023000EE103AD9
:102E4000B8EEC00A20EE200A80ED010A31F9043FF5
:102E500000EE103AB8EEC00A20EE200A80ED020A19
:102E60000830521EE8D1BEE7B74BB84A022103F141
:102E70002000FDF787FFB14AB548A2F5C031D4F86C
:102E8000C431FDF7BBFEB348AAF110014FF4005264
:102E9000D1ED040AB0EE690A20EE800A80ED010A45
:102EA000D1ED080AB0EE690A203120EE800A80EDEB
:102EB000020A0830521EEBD154E0A34BA64A02216D
:102EC00003F12000FDF75EFF9C4AA148A2F5C03146
:102ED000D4F8C431FDF792FE9E48AAF108014FF4E0
:102EE000805200BFD1ED020A00E012E0B0EE680AA5
:102EF00020EE800A80ED010AD1ED040AB0EE680AE6
:102F0000103120EE800A80ED020A0830521EE9D10D
:102F100028E08D4B914A022103F12000FDF732FF9A
:102F2000864A8B48A2F5C031D4F8C431FDF766FE5D
:102F30008848AAF104014FF4006200BFD1ED010AF4
:102F4000B0EE480A20EE800A80ED010AD1ED020AB7
:102F5000B0EE480A083120EE800A80ED020A0830FF
:102F6000521EEBD17E484FF4805100EB850808F5E6
:102F700005627C48FEF710FE012211030423B0EE27
:102F80004B0A0846CDF800B008F042FF7649A1F59B
:102F9000804008F0C7FD08F508624FF48051724880
:102FA000FEF7FAFD0222D1020A23B0EE6B0A0846B0
:102FB000CDF800B008F02CFF6B49A1F5804008F077
:102FC000B1FD08F50B624FF480516748FEF7E4FD50
:102FD00008A800EB850216466448D4F8C411FEF731
:102FE000BBFAD4F8C4219AB3A9F10400AAF10401F0
:102FF00012F0010F0DD090ED010AD6ED000A30EE6F
:10300000600A80ED010A90ED010A001D81ED010AC0
:10301000091DD4F8C42152081AD000BF90ED010A4E
:10302000D6ED000A30EE600A80ED010A81ED010A5A
:1030300090ED020AD6ED000A30EE600A80ED020A39
:1030400090ED020A083081ED020A0831521EE5D1E6
:1030500008F5AC624548D4F8C411FEF79DFDD4F8DC
:10306000C41151B3A9F1040011F0010F0AD090ED81
:10307000010A60EE000A60EE800A20EE800A80ED10
:10308000010A001DD4F8C411490816D0D0ED010A78
:1030900020EEA00A20EE200A20EE200A80ED010A90
:1030A000D0ED020A20EEA00A20EE200A20EE200A2F
:1030B00080ED020A0830491EE8D108F5BE622B48AF
:1030C000D4F8C411FEF768FD08F58066002D96ED72
:1030D000580A60EE000A60EE800A20EE800AD6ED03
:1030E0007C0A80EE801A86EDC41A04BFD7F8C401AA
:1030F000B0F5804F7ED1144B1D4A4FF0020103F111
:103100002000FDF73FFE194A114802F5C031D7F8FB
:10311000C4312FE000000000340C00209D7F3B3DB7
:10312000C81B0020C81B02203FCE913BE504313D67
:10313000A321CC3E00007A4400247449981C052049
:10314000B3FDCD3E28000020981C0620C0EB0008EF
:10315000B81C0620949C0420E8EB000810EC000842
:10316000900D0020989C042098DC0420989C03205B
:1031700038EC0008FDF742FDA9F104004FF40051BE
:10318000D0ED010AB0EE490A20EE800A80ED010A76
:10319000D0ED020AB0EE490A20EE800A80ED020A64
:1031A0000830491EECD122494FF48042A1F5C030CD
:1031B000FDF7ECFC1F4B204A022103F12000FDF734
:1031C000E1FD1E4A1E4802F5C031D4F8C431FDF7B6
:1031D00015FD0CA800EB85049FED1ACA11AB224621
:1031E0004FF480411548FEF74FF994ED000A20EEA8
:1031F0000C0A00E003E008F5006080ED380AD6F81C
:103200006001B0F17A5F09DA08F5006080ED20AA6C
:1032100080ED2CAA86EDC4AA80ED38AA6D1C032D82
:10322000FFF4A2AD13B000F00FB800F013B8000027
:10323000981C0520981C062060EC0008989C032030
:10324000B81C062092C5603ABDEC088BBDEC02CBE1
:10325000FFF7EBBF30BCBDE8C08F704700244FF4D0
:10326000486009F02BF8012251035E4800F09DFFF1
:10327000642000F0E5FC00224FF400615A4800F0A1
:1032800094FF5A4E5A4D5B4FDFF86C91DFF86CA1FA
:103290004FF0010BA046308800287CD0A6F80080B3
:1032A00095F8303105F28B1205F29F1105F2771077
:1032B00000F060F9032009F001F809F0F3FE05F2CF
:1032C000451105F2311000F0C9F8032008F0F6FFAF
:1032D00005F26D1105F2591000F002FA032008F012
:1032E000EDFF00F081FA03E00A2008F0E7FF641C1C
:1032F000388810B9B4F5966FF6D340F2AE408442E8
:1033000037D9394C0122D102204600F04EFF64200B
:1033100008F0D4FF00224FF40061204600F045FF82
:103320004FF4C87008F0CAFFA6F80080012334A249
:1033300037A13BA000F01EF9032008F0BFFF3CA11D
:103340003CA000F08BF8032008F0B8FF3DA13FA09F
:1033500000F0C6F9032008F0B1FF00F045FA388804
:1033600028B9142008F0AAFF38880028F9D0A6F858
:1033700000808AF806B3DAF8C802002420F00200C0
:10338000CAF8C80207F01CF807F07CF907F0C0FB88
:1033900007F06CFA00E00DE007F0C2F907F0FEFB61
:1033A00007F006FB07F082FA07F022FB07F006FAA7
:1033B00007F0BEFAB9F8000078B18AF80683A7F8DA
:1033C0000080A9F8008095F82C0104F0DFFADAF803
:1033D000C80220F00400CAF8C802022008F06EFFFC
:1033E00059E7000000040048000C0048740C00205D
:1033F00028000020760C0020780C0020900D002082
:103400003235352E3235352E3235352E300000002E
:103410003139322E3136382E3130302E3100000025
:103420003139322E3136382E3130302E31320000E3
:103430000000000054656E64615F344637414330DC
:103440000000000038373132000000003139322EE0
:103450003136382E302E3233340000002DE9F05F43
:103460000F468146FCF79CFFC4B23846FCF798FF34
:10347000C2B23C4E04EB0208DFF8ECB008F10A05DA
:1034800035804FF07E0A8BF800A0E5208BF8010014
:10349000A81F8BF80200000A8BF8030000218BF8AC
:1034A00004108BF80540BCB1A9F1010C0BF1050328
:1034B00014F0010F03D01CF8010F03F8010F60088E
:1034C0000AD000BF9CF8019083F801901CF8029F7D
:1034D00003F8029F401EF5D10BEB0400012383711A
:1034E000C271A2B17B1EC01D12F0010F03D013F8F0
:1034F00001CF00F801CF5FEA520C08D05F78477027
:1035000013F8027F00F8027FBCF1010CF6D108EB42
:103510000B0CE31D14485A408CF8081012F0010FF0
:1035200018BF10F8011F002308F10702C2F3470279
:1035300052B14478521E214410F8024FC9B22344BC
:10354000DBB212F0FF02F4D1C8188CF808008CF836
:1035500009A029463580044805F08AFA012000F0C8
:1035600005B800007A0C0020C432062030BCBDE84B
:10357000C09F00002DE9FF5F8046FCF711FFC4B239
:103580000198FCF70DFFC6B20298FCF709FFC3B221
:1035900004EB060A4E4F0AEB03094E4D09F10F01E9
:1035A00039804FF07E0B85F800B0E4206870881FEA
:1035B000A870000AE87000222A716C71BCB1681D05
:1035C000A8F1010C14F0010F03D01CF8018F00F8D2
:1035D000018F5FEA54080AD09CF801E080F801E00E
:1035E0001CF802EF00F802EFB8F10108F4D1281935
:1035F0004FF0010880F80680C671B6B1DDF804C04E
:10360000C01DACF1010C16F0010F03D01CF8014FE6
:1036100000F8014F740808D09CF8016046701CF84F
:10362000026F00F8026F641EF6D10AEB05004FF03E
:10363000020C80F808C04372BBB1DDF808C0093045
:10364000ACF1010C13F0010F03D01CF8014F00F88E
:10365000014F5C0809D000BF9CF8016046701CF85F
:10366000026F00F8026F641EF6D1032009EB050417
:103670000AF10C0CA07284F80B8003982073154893
:103680008CEA0303627313F0010F18BF10F8012FC7
:103690004FF0000C09F10C03C3F347035BB145780D
:1036A0005B1E2A4410F8025FD2B2AC440CF0FF0C4F
:1036B00013F0FF03F3D102EB0C00607384F80EB03B
:1036C0003980044805F0D4F904B0012000F004B8B2
:1036D0007A0C0020C432062030BCBDE8C09F000038
:1036E0002DE9F04788460546FCF75AFEC4B240462D
:1036F000FCF756FEC3B23A4F18190A30DFF8E4A0BF
:1037000038804FF07E098AF80090E7218AF801108E
:10371000801F8AF80200000A8AF8030000228AF853
:1037200004208AF80540A4B16D1E0AF1050C14F0BE
:10373000010F03D015F8010F0CF8010F660808D02F
:1037400068788CF8010015F8020F0CF8020F761E4D
:10375000F6D10AEB040001218171C371ABB1C01D28
:10376000A8F1010113F0010F03D011F801CF00F807
:1037700001CF5FEA530C08D04D78457011F8025F15
:1037800000F8025FBCF1010CF6D104EB030C0CEB6A
:103790000A05E11D134859402A7211F0010F18BFA4
:1037A00010F8012F00230CF10701C1F3470151B1BB
:1037B0004478491E224410F8024FD2B22344DBB2AF
:1037C00011F0FF01F4D1D018287285F809900CF19E
:1037D0000A013980034805F04BF90120BDE8F08764
:1037E0007A0C0020C4320620094810B57E210170F1
:1037F000FF22427000238370C3700271417105483B
:1038000006210180024805F033F9012010BD0000B7
:10381000C43206207A0C0020134A117F1348012974
:1038200018BF03290BD1036843F4006303600368E6
:1038300023F400630360036843F400730360022908
:1038400018BF03290BD1016841F480510160016860
:1038500021F480510160016841F4806101604FF002
:103860000000107770470000E40C002000200240A8
:1038700070B5064600F09EFC1B4C0546206910F40E
:10388000803F0DD0B6F1FF3F06D000F093FC401B07
:10389000B04201D3032070BD206910F4803FF1D104
:1038A000206912490840A16901F00041084313D082
:1038B0000F494A6802434A6010F0404F04D0A169A2
:1038C00000F040421143A16130F040411CBF20F0A4
:1038D00040402061012070BD206910F0010F1CBF25
:1038E00001202061002070BD00200240FAC30200C8
:1038F000E40C002010B590F825100024022903D014
:103900000421C16301242CE001680A6822F00E0240
:103910000A6001680A6822F001020A60816C0A6884
:1039200022F480720A6090F84410036C01F01C01CC
:10393000012202FA01F15960D0E913134B60416D85
:1039400031B10B6823F480730B60D0E916134B6020
:1039500080F82520002180F82410816B002918BFF1
:103960008847204610BDF0B4016CD1F800C0016852
:103970000B6890F8442002F01C04042202FA04F5BB
:1039800015EA0C0F18BF13F0040F14D00B6813F0D6
:10399000200F03D10B6823F004030B6090F8441050
:1039A00001F01C0102FA01F1026C5160016B002967
:1039B00046D1F0BC7047022606FA04F212EA0C0F58
:1039C0004FF000054FF0010218BF13F0020F17D09F
:1039D0000B6813F0200F05D10B6823F00A030B606E
:1039E00080F8252090F84410026C01F01C0106FAC2
:1039F00001F1516080F82450C16A09BBF0BC7047E6
:103A0000082606FA04F414EA0C0F12BF13F0080F8C
:103A1000F0BC70470B6823F00E030B6090F8441065
:103A2000036C01F01C0102FA01F15960C26380F8D5
:103A3000252080F82450416B002904BFF0BC70475A
:103A4000F0BC084770B4002802BF012070BC70476A
:103A5000DFF8F8C001683E4A614508D23D4B0B448F
:103A6000A2FB03431B099B0043643B4B07E03B4B1A
:103A70000B44A2FB03431B099B004364384B0364C4
:103A8000022380F825300B68D0E902452C43D0E9A9
:103A9000045635432C4385696FF30E132C43C569D7
:103AA0002C43056A2C4323430B600168436C61453A
:103AB00023F0030339BF03F5023303F18043DFF83A
:103AC000A4C06344C9B20839A2FB0121264A836419
:103AD0000909C26401F01C01012202FA01F1016529
:103AE00083680021B3F5804F08BF41600379D0F8A7
:103AF00048C0CCF80030D0E9133CC3F804C0436898
:103B0000A3F1010CBCF1030F14D8DFF860C0DBB2E5
:103B10000CEB830C5B1E03F00303154C02FA03F35A
:103B2000C365C0E915C4CCF80010D0E9163CC3F851
:103B300004C002E041658165C165C16380F825204C
:103B400080F8241070BC0020704700000804024078
:103B5000CDCCCCCCF8FFFDBF00000240F8FBFDBF90
:103B6000000402401C08024080080240FC08024099
:103B70004009024070B490F824404FF0000C012C32
:103B800002BF022070BC7047012480F8244090F8E6
:103B900025600025012E1CBF80F824504FF0020C38
:103BA00002D070BC60467047022680F82560C5636D
:103BB00005682E6826F001062E60D0E913566E6067
:103BC000456D002D1CBFD0E916566E6090F844502C
:103BD00005F01C05AC40056C6C600468636083688C
:103BE000102B036803BF9A600268D16099601CBF04
:103BF0000168CA60016B002901680A6818BF42F0B9
:103C00000E0206D122F004020A6001680A6842F03E
:103C10000A020A60816C0A6812F4803F03D00A68C5
:103C200042F480720A60416D19B10A6842F48072F0
:103C30000A600068016841F001010160B1E700001D
:103C400070B5044600F0B6FA0546B4F1FF3F02D065
:103C500004484068044400F0ADFA401BA042FAD387
:103C600070BD0000D80C00202DE9F047624F0646D9
:103C700089463878012804BF0220BDE8F087012575
:103C80003D704CF25030FFF7F3FD4FF00008002874
:103C90007DD1C7F80480594C216811F4007F216858
:103CA0000ED021F400712160216811F4806F08BFEB
:103CB0003D7711D0216821F48061216003210AE061
:103CC00011F4806F08BF87F81C8005D0216821F4AB
:103CD00080612160022139773168012917D04FF0C6
:103CE000FF31C9F80010D6E902512944A9425CD934
:103CF0007068216A11F4800F31D010F0010F6069F3
:103D00000CBF40F4006020F4006060612BE070683C
:103D1000216A11F4800F0ED010F0010F03D06169F9
:103D200041F00401616110F0020F1CBF606940F4B2
:103D3000004005D003E0606948F204010843606177
:103D4000606940F4803060614CF25030FFF790FDC4
:103D5000616921F0040121F40041616125E060699D
:103D600020F400606061616965F3CA0161616069A6
:103D700040F002006061606940F4803060614CF2A4
:103D80005030FFF775FD616921F4FD7100E02FE00F
:103D900021F4C061616110B1C9F8005005E0D6E9B5
:103DA000021211446D1CA942A2D8397F012918BF03
:103DB00003290BD1226842F400622260226822F4B7
:103DC00000622260226842F400722260022918BF59
:103DD00003290BD1216841F480512160216821F42D
:103DE00080512160216841F48061216087F81C8046
:103DF00087F80080BDE8F087E40C00200020024036
:103E00000348416941F000414161002070470000D2
:103E1000002002402DE9F05FDFF8DC800746144601
:103E200098F800009A460D46012804BF022000F0D1
:103E300067B8012088F800004CF25030FFF718FDF9
:103E40005FEA000B4FF0000951D1C8F804902B4EE7
:103E5000306810F4806F08BF88F81C9006D0306876
:103E600020F480603060022088F81C0027B1012F08
:103E700018BF022F11D028E0706940F00100706176
:103E80002C60BFF36F8FC5F804A04FF001044CF213
:103E90005030FFF7EDFC834624E0706940F4802049
:103EA0007061EFF3108372B654F8040B45F8040BFD
:103EB0007F20012154F8042B45F8042B491C814232
:103EC000F8DD83F31088022F05D04CF25030FFF755
:103ED000CFFC834609E04FF480244CF25030FFF7CA
:103EE000C7FC83467069A0437061FFF795FC88F8B2
:103EF0000090584600F004B8E40C00200020024076
:103F000030BCBDE8C09F0000084900204A6912F09B
:103F1000004F08BF7047064A8A60064A8A604969AE
:103F200011F0004F18BF0120704700000020024030
:103F300023016745AB89EFCD7047000004490A684B
:103F4000024208BF704710B50860FFF7F5FF10BDCB
:103F5000140401400B680022002B08BF70472DE9B4
:103F6000F84F884EDFF820E201274FF0030A4FF0A8
:103F70000F0800BF0B6807FA02F52B4000F0FB802A
:103F8000D1F804C0BCF1020F18BFBCF1120F15D15B
:103F90004FEAD20C00EB8C04D4F820904FEA427C1C
:103FA0004FEADC6C08FA0CFB29EA0B09D1F810B0D7
:103FB0000BFA0CFC4CEA090CC4F820C0D0F80090B5
:103FC0004FEA420C91F804B00AFA0CF40BF0030B20
:103FD00029EA04090BFA0CFB4BEA0909C0F8009026
:103FE000D1F80490B9F1010F18BFB9F1020F05D053
:103FF000B9F1110F18BFB9F1120F18D1D0F808900C
:10400000D1F80CB029EA04090BFA0CFB4BEA0909B8
:10401000C0F80890D0F8049029EA050591F80490BA
:10402000C9F3001909FA02F949EA05054560C568AE
:1040300025EA04048D6805FA0CFC4CEA040CC0F86F
:104040000CC0D1F804C01CF0805F7CD0D6F860C0F2
:104050004CF0010CC6F860C0D6F860C00CF0010C42
:10406000CDF800C022F0030C0CF1804404F580343C
:10407000A5684FEA827C4FEA1C7C08FA0CF925EA15
:104080000905B0F1904F08BF4FF0000938D0A0F1FA
:104090009049B9F5806908BF4FF0010930D0A0F10F
:1040A0009049B9F5006908BF4FF0020928D0A0F186
:1040B0009049B9F5406908BF4FF0030920D0A0F13D
:1040C0009049B9F5805908BF4FF0040918D0A0F104
:1040D0009049B9F5A05908BF4FF0050910D0A0F1DB
:1040E0009049B9F5C05908BF4FF0060908D0A0F1B2
:1040F0009049B9F5E0590CBF4FF007094FF0080996
:1041000009FA0CFC4CEA050CC4F808C0DEF800C043
:104110004C682CEA030C14F4803F18BF4CEA030CE3
:10412000CEF800C0194CD4F800C04D682CEA030C3E
:1041300015F4003F18BF4CEA030CC4F800C0144C3F
:10414000D4F800C000E016E04D682CEA030C15F42A
:10415000801F18BF4CEA030CC4F800C00D4CD4F803
:1041600000C04D682CEA030C15F4001F18BF4CEA80
:10417000030CC4F800C00B68521CD3407FF4FAAEA5
:1041800000F00AB80010024000040140040401409D
:10419000080401400C04014018BCBDE8E08F4269EE
:1041A0000A4214BF816281617047002A14BF816195
:1041B000816270470148806870470000D80C002079
:1041C000024881684268114481607047D80C002021
:1041D00010B50024032000F0B3F8002000F008F828
:1041E000002814BF012400F03DF8204610BD000057
:1041F00000B5014687B00022372000F06FF8372065
:1042000000F05DF81348816D41F020018165806DFB
:1042100005A900F020000690684600F0C1FC00F0FF
:10422000DFFC0D490D4AB0FBF1F0411E0C48026065
:10423000416040F2E7320021C0E90321816001F0D2
:1042400096FD00280ABF0648012001F0DFFD07B0F7
:1042500000BD00000010024040420F00001400406A
:10426000043906200B4882B0016E41F0010101665D
:10427000016E01F001010091816D41F08051816575
:10428000806D002200F0805000900F21901E02B03F
:1042900000F024B8001002400028B8BF704700F0BA
:1042A0001F01012202FA01F14009800000F1E02023
:1042B000C0F88011BFF34F8FBFF36F8F7047002896
:1042C000B8BF704700F01F01012202FA01F1400956
:1042D000800000F1E020C0F800117047174B10B4C7
:1042E0001B68C3F30223C3F1070CBCF1040F88BFA2
:1042F0004FF0040C1C1D072C34BF0023DB1E0124CF
:1043000004FA0CFCACF1010C0CEA0101994004FA2E
:1043100003F35B1E1A40114300284FEA0111A1BFAD
:1043200000F1E02080F8001410BC704700F00F008E
:1043300000F1E02080F8141D10BC70470CED00E087
:10434000074900F007000A684FF6FF031A4042EAE7
:10435000002040F0FD7040F0806008607047000071
:104360000CED00E02C4932222C4B09684A432C49C1
:1043700050B1B0F5007F08682BD020F4C06040F445
:104380008060086000207047086800F4C060B0F5E5
:10439000806FD1F8800020F4807002D0C1F88000D6
:1043A000F0E7C1F88000086820F4C06040F40070B5
:1043B0000860B2FBF3F000F101004A6912F4806F6B
:1043C0001CBF0028401EF8D1486910F4806F20D12E
:1043D000D8E700F4C060B0F5806FD1F8800040F4F9
:1043E0008070DBD1C1F88000086820F4C06040F420
:1043F00000700860B2FBF3F000F101004A6912F4AA
:10440000806F1CBF0028401EF8D1486910F4806FEF
:10441000B8D04FF003007047040D002040420F0059
:10442000007000400848016801F4C061B1F5806F78
:1044300004BF4FF480607047D0F8800010F48070A3
:1044400018BF4FF4007070470070004002480168C8
:1044500041F48071016070470070004006480168B7
:1044600021F0070141F0030101600448016841F0B7
:104470000401016030BF70470070004010ED00E0A3
:104480002DE9F84F044600260088374610F4006FE7
:10449000FE4D21D0E06E40280AD004DC68B120280F
:1044A00012D0012617E0602818BF8028F9D122E039
:1044B000E86840F48030E8601DE04FF0000104F14E
:1044C000040002F05DFB04E0002104F1200002F092
:1044D00001FC06000FD03746208810F4805F2ED0F4
:1044E000206FB0F5007F16D00EDCC8B1B0F5807F2C
:1044F0001DD0012622E0D5F89C00E16E20F0E000FE
:104500000843C5F89C00E7E7B0F5407F18BFB0F559
:10451000806FEED111E0E86840F48030E8600CE094
:104520004FF0000104F1040002F02AFB04E0002136
:1045300004F1200002F0CEFB06465EB1374620684B
:1045400010F4003F41D0A86D4FF0000910F0805FDB
:104550000AD013E0D5F89C00216F20F4E06040EA17
:104560000100C5F89C00EAE7A86D40F08050A865FE
:10457000A86D4FF0010900F080500090DFF810A303
:10458000DAF8000040F48070CAF80000FFF712FE6D
:104590008046DAF8000010F4807F0CD1FFF70AFEA5
:1045A000A0EB0800022801D9032606E0DAF8000093
:1045B00010F4807FF2D0002E7ED03746B9F1000F84
:1045C00003D0A86D20F08050A865207810F0010F6E
:1045D00007D0D5F88800E16B20F003000843C5F848
:1045E0008800207810F0020F07D0D5F88800216CE1
:1045F00020F00C000843C5F88800207810F0040F64
:1046000007D0D5F88800616C20F030000843C5F869
:104610008800207810F0080F07D0D5F88800A16C2A
:1046200020F0C0000843C5F88800207810F0100F73
:1046300007D0D5F88800E16C20F440700843C5F835
:104640008800207810F0200F07D0D5F88800216D61
:1046500020F440600843C5F88800208810F4007FEB
:1046600007D0D5F88800616E20F440200843C5F8D3
:104670008800208810F4806F07D0D5F88800A16EDC
:1046800020F440100843C5F88800207810F0400F4F
:1046900007D0D5F88800616D20F440500843C5F874
:1046A0008800207810F0800F09D0D5F88800A16D1F
:1046B00020F44040084300E02DE0C5F88800208841
:1046C00010F4807F07D0D5F88800E16D20F44030E9
:1046D0000843C5F88800206810F4801F07D0D5F87B
:1046E0009C00216E20F003000843C5F89C00208840
:1046F00010F4005F5CD0D5F88800616F20F0406056
:104700000843C5F88800606FB0F1006F44D0B0F185
:10471000806F46D04CE0D5F8900010F440711CBF7B
:10472000D4F89800884211D0D5F8900020F4407158
:10473000D5F8900040F48030C5F89000D5F890008E
:1047400020F48030C5F89000C5F8901011F0010FEA
:1047500018D0FFF72FFD8046D5F8900010F0020F1B
:1047600008BF41F2883A0DD1FFF724FDA0EB080005
:10477000504502D90326374620E7D5F8900010F0BF
:10478000020FF1D0D5F89000D4F8981020F44070C2
:104790000843C5F8900011E7E86840F48010E8602D
:1047A00006E00121201D02F0EBF9060018BF0746C4
:1047B000206810F4002F32D0A06FB0F5804FD5F8EC
:1047C0009C0004BF40F48040C5F89C000BD020F44E
:1047D0008040C5F89C00D5F88800A16F20F04060AB
:1047E0000843C5F88800A06FB0F1006F04BFE86807
:1047F00040F480100AD0B0F5804F04BFE86840F460
:10480000803003D0B0F1806F02D008E0E86006E0AD
:104810000121201D02F0B4F9060018BF07462068E8
:1048200010F4802F1BD0D5F88800E16F20F0406095
:104830000843C5F88800E06FB0F1006F03D0B0F115
:10484000806F05D00BE0E86840F48010E86006E077
:104850000121201D02F094F9060018BF07462088A8
:1048600010F4804F19D0D5F88800D4F8801020F0CB
:1048700040500843C5F88800D4F88000B0F1805F4C
:104880000BD10221201D02F07BF903E00010024051
:1048900000700040060018BF0746206810F4803FF3
:1048A00008D0D5F89C00D4F8841020F00400084308
:1048B000C5F89C00206810F4001F08D0D5F89C00B3
:1048C000D4F8881020F018000843C5F89C00206830
:1048D00010F4800F28D0286820F080502860FFF75F
:1048E00069FC8046286810F0005F0BD0FFF762FC7F
:1048F000A0EB0800022801D9032614E0286810F074
:10490000005FF3D17EB9D5F89C00D4F88C1020F468
:1049100040300843C5F89C00022104F1200002F059
:10492000D9F9060000D03746206810F4000F15D0E2
:10493000D5F89C00D4F8901020F480500843C5F8B6
:104940009C00D4F89000B0F5805F07D1012104F1FC
:10495000200002F0BFF9002818BF0746206810F0B9
:10496000807F11D0D5F89C00D4F8941020F440102A
:104970000843C5F89C00D4F89400B0F5001F03D19B
:10498000E86840F48010E860384600F000B818BCD1
:10499000BDE8E08F2DE9F0470F4605004FF0000815
:1049A0007DD0764E306800F00F00874209D930681C
:1049B00020F00F0038433060306800F00F00B8423C
:1049C0006DD129686E4C11F0010F69D06868DFF86D
:1049D000B491032831D0022874D00028206876D002
:1049E00010F4806F5BD000BF00F01EF9484507D976
:1049F000A06820F0F00040F08000A0604FF0800838
:104A0000A068696820F003000843A060FFF7D2FBAC
:104A10008146A068696800F00C00B0EB810F18BFF8
:104A200041F2883A5ED000BFFFF7C4FBA0EB09005B
:104A3000504550D90320BDE8F087206810F0007F72
:104A400069D0E068002200F00300012829D0E06866
:104A500000F00300022808BF4B4A02D0032808BF19
:104A60004A4AE068C0F30310431CE068C0F3062024
:104A70005043B0FBF3F2E068C0F34160401C4000DB
:104A8000B2FBF0F04845BBD9A06810F0F00FAFD0F2
:104A900011F0020FB4D0A8680028A9D0B0E73AE01E
:104AA00020E0206810F0080F19BF2068C0F3031041
:104AB000D4F89400C0F30320354A52F82020C6E70A
:104AC00000E004E0206810F4003F8DD123E010F0F6
:104AD000020F89D11FE0A06800F00C016868B1EBFB
:104AE000800FA1D1287810F0020F17D0A068A96814
:104AF00020F0F0000843A060306800F00F00B842DA
:104B000014D9306820F00F0038433060306800F06E
:104B10000F00B8420AD00120BDE8F087B8F1800F3D
:104B200004BFA06820F0F000E6D1E4E7287810F098
:104B3000040F05D0A068E96820F4E0600843A06095
:104B4000287810F0080F06D0A068296920F460507A
:104B500040EAC100A06000F067F8A1680D4AC1F307
:104B60000311515C01F01F01C8400B4908600B485C
:104B70000068BDE8F047FFF73BBB000000200240A3
:104B80000010024000B4C4040024F40000127A00B3
:104B9000E4EC0008D4EC0008040D0020D80C002040
:104BA0000F2202600C4A936803F00303436093688A
:104BB00003F0F0038360936803F4E063C3609268DA
:104BC0004FF4E06303EAD20202610448006800F097
:104BD0000F000860704700000010024000200240F3
:104BE0000548064900688968054AC1F30221515CFD
:104BF00001F01F01C8407047040D00200010024062
:104C000014ED00080548064900688968054AC1F3A3
:104C1000C221515C01F01F01C8407047040D002003
:104C20000010024014ED0008294930B400238A68BE
:104C30001846D1F80CC012F00C020CF00305DFF896
:104C400094C04FEA6C040DD00C2A09D0042A02BF8C
:104C5000604630BC7047082A08BF204630BC704709
:104C6000012D16D10B6813F0080F07BFD1F894304F
:104C7000C3F303230B68C3F30313174D002A55F83E
:104C8000233002BF184630BC70470C2A1CBF30BC12
:104C90007047C86800F00300022808BF604603D0D0
:104CA000032814BF18462046CA68CB68C2F3031213
:104CB000C3F306235843521CB0FBF2F0C96830BC62
:104CC000C1F34161491C4900B0FBF1F0704700009D
:104CD000001002400024F400E4EC0008002804BFA7
:104CE000012070472DE9F84FFE4D0446A86800F0FA
:104CF0000C06E86800F0030A207810F0100F00F0AE
:104D00000B81A6B10C2E08BFBAF1010F0FD0A0691C
:104D10000028286800F0EC8040F001002860FFF7D0
:104D200049FA0746286810F0020F7DD0CEE02868C7
:104D300010F0020F02D0A069002876D0D4F820909D
:104D4000286810F0080F19BF286800F0F000D5F8A7
:104D50009400F02108BF01EA1010DFF88C83814530
:104D600047D9A86D002710F0805F02D0FFF75AFBEB
:104D70000DE0A86D40F08050A865A86D00F080504F
:104D80000090FFF74FFBA96D21F08051A965B0F5A8
:104D9000007F04D0B9F1800F08D302270AE0B9F1EF
:104DA000800F07D9B9F1A00F03D9F6E7B9F1700F59
:104DB00000D10127D8F8000020F00F003843C8F8D0
:104DC0000000D8F8000000F00F00B8425CD128685D
:104DD00040F0080028602868216A20F0F0000843AD
:104DE00028606868E16920F47F4040EA012068603B
:104DF0004DE0286840F008002860286820F0F001A5
:104E0000206A084328606868E16920F47F4040EA2E
:104E100001206860D4F82090A86D002710F0805F12
:104E200004D0FFF7FFFA0FE046E02DE0A86D40F058
:104E30008050A865A86D00F080500090FFF7F2FA4E
:104E4000A96D21F08051A965B0F5007F04D0B9F1BA
:104E5000800F08D302270AE0B9F1800F07D9B9F112
:104E6000A00F03D9F6E7B9F1700F00D10127D8F8E8
:104E7000000020F00F003843C8F80000D8F8000008
:104E800000F00F00B84202D0012000F097BAFFF7FF
:104E9000CBFEA968954AC1F30311515C01F01F01D3
:104EA000C8409349086093480068FFF7A1F90028BB
:104EB00018BF00F083BA2FE0FFF77CF9C01B02286F
:104EC00000F23582286810F0020FF5D0286840F013
:104ED000080028602868216A20F0F0000843286054
:104EE0006868E16920F47F4040EA0120686013E0CF
:104EF00020F001002860FFF75DF90746286810F0F0
:104F0000020F09D0FFF756F9C01B022800F20F82EA
:104F1000286810F0020FF5D1207810F0010F4DD065
:104F2000082E22D00C2E08BFBAF1030F1DD06068E6
:104F3000B0F5803F21D0B0F5A02F28680CBF40F419
:104F4000802020F48030286028680CBF40F4803036
:104F500020F4802028606068F8B1FFF72BF907463D
:104F6000286810F4003F0DD028E0286810F4003FB6
:104F700024D06068002887D020E0286840F4803082
:104F80002860E8E7FFF716F9C01B642800F2CF811C
:104F9000286810F4003FF5D010E0FFF70BF9074642
:104FA000286810F4003F09D0FFF704F9C01B6428FB
:104FB00000F2BD81286810F4003FF5D1207810F090
:104FC000020F44D0042E13D00C2E08BFBAF1020FEA
:104FD0000ED0E0680028286825D040F48070286052
:104FE000FFF7E8F80746286810F4806F09D012E050
:104FF000286810F4806F0ED0E06800283FF444AFBA
:1050000009E0FFF7D7F8C01B022800F2908128685A
:1050100010F4806FF5D06868217C20F0FE4040EAF3
:105020000160686013E020F480702860FFF7C2F828
:105030000746286810F4806F09D000BFFFF7BAF860
:10504000C01B02287DD8286810F4806FF6D1207824
:1050500010F0080F32D060690028D5F8940016D0FF
:1050600040F00100C5F89400FFF7A4F80746D5F812
:10507000940010F0020F21D1FFF79CF8C01B02280A
:105080005FD8D5F8940010F0020FF5D016E020F0AC
:105090000100C5F89400FFF78DF80746D5F8940095
:1050A00010F0020F0AD000BFFFF784F8C01B0228DF
:1050B00047D8D5F8940010F0020FF5D1207810F001
:1050C000040F70D0A86D4FF0000810F0805F14D16D
:1050D000A86D40F08050A865A86D4FF0010800F061
:1050E000805009E00010024000200240D4EC00088B
:1050F000040D0020D80C00200090DFF8B892D9F8F9
:10510000000010F4807F17D1D9F8000040F48070BF
:10511000C9F80000FFF74EF80746D9F8000010F470
:10512000807F09D1FFF746F8C01B022809D8D9F8BB
:10513000000010F4807FF5D0A068012821D0052858
:1051400000E0A9E0D5F890000CBF40F0040020F08A
:105150000100C5F89000D5F890000CBF40F00100A8
:1051600020F00400C5F89000A06841F28839D8B159
:10517000FFF720F80746D5F8900010F0020F07D08F
:1051800024E0D5F8900040F00100C5F89000EBE76E
:10519000FFF710F8C01B48457ED8D5F8900010F0F6
:1051A000020FF5D012E018E0FFF704F80746D5F833
:1051B000900010F0020F09D0FEF7FCFFC01B48451D
:1051C0006AD8D5F8900010F0020FF5D1B8F1000FB1
:1051D00003D0A86D20F08050A865207810F0200F33
:1051E00032D0606A0028D5F8980016D040F001004F
:1051F000C5F89800FEF7DEFF0746D5F8980010F0D6
:10520000020F21D1FEF7D6FFC01B022844D8D5F8E3
:10521000980010F0020FF5D016E020F00100C5F85C
:105220009800FEF7C7FF0746D5F8980010F0020F68
:105230000AD000BFFEF7BEFFC01B022877D8D5F802
:10524000980010F0020FF5D1A06A30B30C2E77D081
:105250000228286820F08070286004D0286810F0A8
:10526000205F4DD050E0FEF7A5FF0646286810F0FD
:10527000007F08D0FEF79EFF801B022857D82868C1
:1052800010F0007FF6D1D4E90B016FF00F0202EBB2
:1052900001110843A18F01E049E088E04908520468
:1052A00002EB4151626B41EA0221084394F840103D
:1052B0004FF07E42490802EB4161084394F83810F0
:1052C00040EAC160E9683C4A11400843E860286848
:1052D00040F080702860E86840F08070E860FEF779
:1052E00069FF0446286810F0007F60D1FEF762FF76
:1052F000001B02281BD8286810F0007FF6D056E06B
:10530000E86820F00300E860E86820F4881020F0E6
:105310008070E860FEF74EFF0446286810F0007FBA
:1053200045D000BFFEF746FF001B022803D903202B
:1053300000F044B804E0286810F0007FF2D136E0B5
:10534000012808BF00F03AB8E868E26A00F00301FB
:1053500091427FF499AD216B00F0F0020901103900
:1053600091427FF491AD626B00F4FE41B1EB022FEC
:105370007FF48AAD94F8382000F07841B1EBC26F29
:105380007FF482ADA18F00F4C00249084905A1F560
:10539000001191427FF478AD94F8401000F0C060A5
:1053A00049084906A1F1007181427FF46DAD0020EA
:1053B00000F004B8007000400C809D0118BCBDE8EE
:1053C000E08F0068503050F821007047006881B0CD
:1053D000503000EB81000090026001B070472DE971
:1053E000F041044690F82000012804BF0220BDE8E7
:1053F000F081012684F82060022084F821002168D1
:10540000CA2048622168532048622068816821F4DC
:10541000806181602068816821F480418160FEF7AD
:10542000C9FE05462068C0684FF0000710F0040F61
:105430004FF0FF0813D1FEF7BDFE401BB0F57A7F99
:10544000206808D9C0F82480032084F8210084F85B
:105450002070BDE8F081C06810F0040FEBD0206828
:10546000C0F8248084F8216084F820700020BDE812
:10547000F08100002DE9F047044690F820009146A5
:105480008A46012804BF0220BDE8F087012684F87F
:105490002060022084F821002168CA204862216827
:1054A000532048622068816821F48061816020680F
:1054B000C16801F0800161F49061C1602068C0683A
:1054C0004FF0000710F0400F4FF0FF081CD1FEF71F
:1054D00071FE05462068C06810F0040F14D100BFAB
:1054E000FEF768FE401BB0F57A7F206808D9C0F847
:1054F0002480032084F8210084F82070BDE8F08720
:10550000C06810F0040FEBD02068C0F814A0206829
:10551000816821F0070141EA090181600E480168B4
:1055200041F4801101600D48016841F4801101606F
:105530002068816841F4804181602068816841F47D
:10554000806181602068C0F8248084F8216084F83C
:1055500020700020BDE8F0870004014008040140ED
:105560007047000010B50B4904464FF480100860E6
:105570002068C16811F4806F08D0C16801F0800113
:1055800061F49061C1602046FFF7EAFF012084F8D2
:10559000210010BD1404014010B40068406820F0E0
:1055A000C00424F07F444FEA144CC4F3042381F870
:1055B00003C004F03F004B708870C4F342340C7099
:1055C000C2B94FEA1C1202EB82020CF00F0C0CEB7A
:1055D0004202CA701A0902EB820203F00F0303EBC6
:1055E00042024A70020902EB820200F00F0000EB57
:1055F0004200887010BC00207047000010B403689F
:105600009B6A4B6003681B69C3F30E038B600068E1
:105610000068164B00EA0304C4F3054CC4F30623E8
:1056200081F800C004F07F004B708870A40DCC702E
:10563000C2B94FEA1C1202EB82020CF00F0C0CEB09
:1056400042020A701A0902EB820203F00F0303EB15
:1056500042024A70020902EB820200F00F0000EBE6
:105660004200887010BC0020704700007F7F7F00E0
:105670002DE9F04104004FF0010008BFBDE8F081C2
:1056800094F8210028B9002084F82000204600F07A
:1056900063F8022084F821002168CA20486221684A
:1056A0005320486220680025C16811F0400F19D1CD
:1056B000691EC160FEF77EFD0646032709E000BFB4
:1056C000FEF778FD801BB0F57A7F84BF032584F850
:1056D00021702068C06810F0400F37D0280018BF34
:1056E000BDE8F0812068816821F0400121F4E001EB
:1056F0008160206881686268A369114322691A4346
:10570000114381602168E06808612068016922898D
:1057100041EA02410161204601F03CFC002818BF2B
:10572000BDE8F0812168CA6C22F00302CA64626994
:10573000E1690A432168CB6C1A43CA642268FF21DD
:105740005162012184F82110BDE8F081032DB7D109
:105750002846BDE8F08100000068A0F18041B1F565
:10576000205118BF7047034850F8901F41F4004182
:1057700001607047001002402DE9F047044690F8A0
:1057800020000D46012804BF0220BDE8F0874FF03D
:10579000010884F82080022084F82100CAB1A8788A
:1057A000E9782A7840EA01406978090241EA423101
:1057B00040EA01062168CA204862216853204862F5
:1057C00020680025C1684FF0FF0911F0400F19D083
:1057D0003AE0687810F0100F03D000F0EF000A30C4
:1057E0006870E87801F020FB0604687801F01CFB83
:1057F00046EA0026A87801F017FB2978304340EAF2
:105800004136D7E74FF0FF31C160FEF7D3FC0746C2
:105810004FF0030A09E000BFFEF7CCFCC01BB0F557
:105820007A7F84BF032584F821A02068C06810F027
:10583000400F02D0280007D00DE0032DECD12168E5
:105840002846C1F824900DE0216826F0C000486089
:10585000204601F09FFB2168C1F82490002808BF72
:1058600084F82180002184F82010BDE8F087000032
:105870002DE9F74F044690F820000D46012802BF9D
:10588000022003B000F080B84FF0010984F82090A6
:10589000022084F821002168CA2048622168532030
:1058A000486220680026C1684FF0FF0A11F0400FDF
:1058B000374620D1711EC160FEF77CFC80464FF058
:1058C000030B09E0FEF776FCA0EB0800B0F57A7F49
:1058D00084BF032684F821B02068C06810F0400F10
:1058E00002D0300007D041E0032EEBD121683046D2
:1058F000C1F824A041E0029800282068806800F0E8
:1059000040000DD0002808BFEF70A8782978EA7809
:1059100040EA01406978090241EA8251084312E0F5
:10592000002808BFEF70287801F07EFA0604687836
:1059300001F07AFA46EA0026A87801F075FAE978CB
:10594000304340EA81500F490840216808602068D0
:10595000816821F480218160D5E903010143206839
:10596000826811438160204601F014FB2168C1F870
:1059700024A0002808BF84F8219084F8207003B088
:1059800000F002B87F7F7F0030BCBDE8C08F000010
:1059900003480068C16841F00101C1607047000020
:1059A00004390620704790F85D00704738B504460A
:1059B00000684268816811F0400F0BD111F0010FAF
:1059C00018BF12F0400F05D0E16C01B02046BDE8D1
:1059D0003040084711F0020F18BF12F0800F05D0B9
:1059E000216D01B02046BDE83040084711F4B07F7A
:1059F00014BF12F0200F38BD11F0400F0AD094F8F8
:105A00005D30032B4DD0236E43F004032366C3683F
:105A10008368009311F0200F09D0236E43F0010337
:105A2000236683680093036823F04003036011F446
:105A3000807F06D0206E40F00800206620688068D5
:105A40000090206E002808BF38BD2068416821F012
:105A5000E0014160012084F85D0012F0030F24D0C2
:105A60002068416821F003014160124DA06D40B1F2
:105A70008563A06DFDF73EFF18B1206E40F0400039
:105A80002066606D002808BF38BD8563606DFDF736
:105A900031FF002808BF38BD206E40F0400020666E
:105AA00038BDC1688068009038BD2046FFF77AFF96
:105AB00038BD00004F760008002804BF0120704761
:105AC00070B500250446856290F85D0020B984F821
:105AD0005C50204600F04AF8022284F85D202068DD
