:020000040802F0
:1000000000560820B1020208CF6202087B60020895
:10001000CD6202081D210208C1850208000000000F
:10002000000000000000000000000000D1010208F4
:1000300095270208000000002D020208E570020862
:10004000CB020208CB020208CB0202082D6A02088A
:10005000CB020208CB020208CB020208CB02020844
:10006000CB020208CB020208CB02020821210208BF
:100070002D210208CB020208CB020208CB020208A3
:10008000CB020208CB020208CB020208CB02020814
:10009000CB020208CB020208CB0202089927020811
:1000A000CB020208CB020208CB020208CB020208F4
:1000B000CB020208E57102081D720208CB02020899
:1000C000CB020208CB020208CB020208C16B020875
:1000D000CB02020849850208CB020208CB020208C3
:1000E000CB020208CB020208CB020208CB020208B4
:1000F000AD720208CB020208CB0202080000000029
:10010000CB020208CB020208CB020208CB02020893
:10011000CB020208CB020208CB020208A17202083D
:10012000CB020208CB020208CB020208CB02020873
:10013000CB020208CB020208CB020208CB02020863
:10014000CB020208CB020208CB020208CB02020853
:10015000CB020208CB020208CB020208CB02020843
:10016000CB020208CB020208CB020208CB02020833
:10017000CB020208CB020208CB02020800000000FA
:10018000CB020208CB020208CB020208CB02020813
:10019000CB020208CB0202080000000000000000B1
:1001A0000000000000000000CB020208CB020208A1
:1001B000CB020208CB020208CB020208DFF80CD007
:1001C00000F036FC0048004735B70208005608200A
:1001D0002C4B1968086800F05AB880F30988BFF3FF
:1001E0006F8F4FF0000080F311887047000000000F
:1001F00008480068006880F308884FF0000080F32A
:10020000148862B661B6BFF34F8FBFF36F8F00DF04
:1002100000BF00BF08ED00E0DFF80C00016841F40A
:1002200070010160704700BF88ED00E0EFF30980C6
:10023000BFF36F8F134B1A681EF0100F08BF20ED2D
:10024000108A20E9F04F106009B44FF0500080F39D
:100250001188BFF34F8FBFF36F8F0CF079FF4FF012
:10026000000080F3118809BC1968086800F014B810
:100270001EF0100F08BF00F014B880F30988BFF318
:100280006F8F7047180D0020EFF30580704730C85E
:10029000B0E8C04FFFF7A1BF30C8B0E8C04FFFF7CC
:1002A000E7BFB0EC088AB0EC08CAFFF7E6BF000071
:1002B0000648804706480047FEE7FEE7FEE7FEE700
:1002C000FEE7FEE7FEE7FEE7FEE7FEE79D710208B8
:1002D000BD0102082DE9F05F0546002092469B46CD
:1002E00088460646814640241BE02846414647464C
:1002F000224600F0E0F853465A46C01A914110D306
:1003000011461846224600F0C7F82D1A67EB01087F
:100310004F4622460120002100F0BEF817EB0009ED
:100320004E41201EA4F10104DFDC484631462A4636
:10033000434600F000B830BCBDE8C09F40EA01036E
:100340009B0703D009E008C9121F08C0042AFAD28B
:1003500003E011F8013B00F8013B521EF9D270474F
:10036000D2B201E000F8012B491EFBD270470022F7
:10037000F6E710B513460A4604461946FFF7F0FFA4
:10038000204610BD421C10F8011B0029FBD1801A29
:1003900070470EB540F2334102910021CDE90011C2
:1003A0000A460B4600F0DDF803B000BDC1F30A5267
:1003B00010B5C1F3130140F2FF3341F480119A42AA
:1003C00001DA002010BD40F233439A42A2F23342D8
:1003D00003DC524200F06FF810BD904010BD00F0F9
:1003E000004230F000400AD0C10D01F56071C0F349
:1003F000160042EA0151C20840071143704700202D
:100400000146704730B5041E71F1000404DB4FF063
:100410000044404264EB0101141E73F1000405DB4B
:100420001C464FF00043524263EB0403994208BF5D
:10043000904230BD01F0004330B421F0004150EA59
:10044000010206D00A0DA2F56072C1F31301002A61
:1004500002DC30BC00207047440F44EAC104C100F4
:10046000E01830BC00EBC25000F035B830B50B4698
:10047000014600202022012409E021FA02F59D42D4
:1004800005D303FA02F5491B04FA02F52844151EA8
:10049000A2F10102F1DC30BD202A04DB203A00FA8F
:1004A00002F1002070479140C2F1200320FA03F3CB
:1004B000194390407047202A04DB203A21FA02F0C9
:1004C0000021704721FA02F3D040C2F1200291408E
:1004D0000843194670470029A8BF7047401C4900CF
:1004E00008BF20F00100704710B4B0FA80FC00FA99
:1004F0000CF050EA010404BF10BC704749B1CCF1C4
:10050000200421FA04F411FA0CF118BF012121434F
:100510000843A3EB0C01CB1D4FEA00614FEA10200A
:1005200042BF002010BC704700EBC35010440029AC
:10053000A4BF10BC7047401C490008BF20F0010058
:1005400010BC704710B5141E73F1000408DA401C8B
:1005500041F1000192185B411A4301D120F00100E2
:1005600010BD2DE9F04D92469B4611B1B1FA81F2D2
:1005700002E0B0FA80F220329046FFF78DFF044689
:100580000F4640EA0A0041EA0B0153465A46084327
:1005900013D0114653EA010019D0C8F14002504669
:1005A000FFF789FF05460E46504659464246FFF77B
:1005B00073FF084305D0012004E020463946BDE81A
:1005C000F08D0020054346EAE0762C4337430A9835
:1005D0006305E40AA0EB08000022FD0A44EA475440
:1005E0000A3002D500200146E9E7010510196941EA
:1005F000DDE9084500196941BDE8F04DA2E72DE9A4
:10060000FE4F804681EA0300C00F0C46009021F0A7
:10061000004123F00045B8EB0200A94105D2404655
:10062000214690461C460B46024623F000401043EC
:1006300047D0270DC7F30A00C3F30A510290401AAE
:10064000019040286BDAC3F3130040F4801B00983C
:10065000924620B10023D2EB030A63EB0B0B019807
:100660005946C0F140025046FFF716FF06460D46B8
:1006700050465946019A00F0EDF910EB080061412F
:10068000002487EA115284EAE7731A4340D0009AA3
:1006900062B3019A012A4FEA075215DC001B61EB95
:1006A00002014FF0004202EA0752CDE90042001C6D
:1006B00041F5801132462B46FFF753FF03B000F09F
:1006C00045B840462146F9E7001B61EB0201001CDA
:1006D00041F5801300185B412018A2F5001747EB85
:1006E000030140EAD570B6196D4111E06D084FEA7B
:1006F000360645EAC0754FEA0752001B61EB02015E
:10070000001C41F5801149084FEA300000195141A1
:1007100032462B4603B000F01CB8FFF713BF009819
:10072000012240000023D0EB020263EBE07300984B
:1007300021464FEAE074B8EB000061EB0401E9E701
:1007400083F000435BE781F0004158E730BCBDE82F
:10075000C08F30BCBDE8C04FFFF7DFBF2DE9FE4FB3
:1007600081EA030404F0004421F0004100944FF0BA
:10077000000B23F0004350EA01045ED052EA030468
:100780005BD0C3F30A54C1F30A552C44A4F2F334EA
:100790000194A0FB0254C1F3130141F48011C3F38F
:1007A000130343F4801301FB024400FB034E840A4D
:1007B000970A44EA815447EA8357A4FB07680295E5
:1007C0008D0A05FB07854FEA932C04FB0C54270583
:1007D000029D4FEA065847EA1637B5EB08056EEB5F
:1007E000070C870E920E47EA811742EA8312A7FB95
:1007F0000201B6EB0B0164EB00042B0D43EA0C3352
:100800005E1844EB1C50DA465146E7FB0201C5F383
:1008100013044FEA0B3343EA14534FEA0432019CAA
:1008200043EA0603A4F10C040294009CCDE900B451
:10083000FFF797FE03B000F003B800200146F9E788
:1008400030BCBDE8C08F2DE9F04D81EA030404F00F
:10085000004B21F0004514464FF0000A23F0004100
:1008600050EA050220D054EA01021DD0C5F30A5710
:100870000246C5F31303C1F31300C1F30A5640F453
:10088000801543F48013A7EB0608101BD64608F228
:10089000FD3873EB050002D308F1010801E092185E
:1008A0005B41B8F1000F03DA00200146BDE8F08D8E
:1008B00000204FF48011064684460EE0171B73EBB0
:1008C000050705D3121B63EB050306434CEA010C35
:1008D00049084FEA300092185B4150EA0107EDD118
:1008E00052EA030012D082EA040083EA05010843B9
:1008F00005D0101BAB4106D20122002306E00022E6
:100900004FF0004302E06FF0010253101AEB0600B3
:100910004CEB085110EB0A0041EB0B01BDE8F04D28
:10092000FFF710BE70B521F0004303430CD0C1F3B4
:100930000A550024D5EB040564EB0403D617AD1A61
:10094000B34102DB0020014670BD201841EB02518B
:1009500070BD00002DE9F041054621F000400C4635
:10096000284309D0C4F30A5040F23341884205DDE0
:1009700028462146BDE8F0812846FBE740F2FE31DB
:10098000884210DC0CDB4FEA043040EA155050EA94
:10099000053105D0104804F0004101430020E9E78B
:1009A00000200146E6E7A0F233404642C6F140028D
:1009B00028462146FFF770FD07468846284621460F
:1009C0003246FFF778FD43463A46FFF7BBFD324615
:1009D000BDE8F041FFF760BD0000F03F0EB5C10F6C
:1009E00080EAE0700844CA07002140F233438DE8F2
:1009F0000E000A460B46FFF7B4FD03B000BD000031
:100A000030B5041E71F1000404DB4FF00044404295
:100A100064EB0101141E73F1000405DB1C464FF06A
:100A20000043524263EB04038B4208BF824230BD55
:100A3000064C074D06E0E06840F0010394E807002B
:100A400098471034AC42F6D3FFF7BCFB5438040887
:100A500074380408202A06DBCB17203A41FA02F04A
:100A600043EAE07306E041FA02F3D040C2F120020B
:100A700091400843194670472DE9F04D00231A466E
:100A80001B1A8A4103DB00200146BDE8F08DC1F34B
:100A90000A52C1F3130141F480154FF0000BD10746
:100AA00002D100186D41521E0027044640F2FF118A
:100AB000384601EB620A3E468046024600204FF46B
:100AC0008011FFF7F8FCC2197141BB1846EB010019
:100AD000B4EB030C75EB000C04D3E41A65EB0005D2
:100AE00017460E46241908F101006D41804634284E
:100AF000E3DDF91946EB0600091BA84103D24FF0CC
:100B0000FF32134601E0002213461BEB070046EBC1
:100B10000A51BDE8F04DFFF715BD70B58C1810F8FF
:100B2000015B15F0070301D110F8013B2A1106D132
:100B300010F8012B03E010F8016B01F8016B5B1E4C
:100B4000F9D12B0705D40023521E0DD401F8013B27
:100B5000FAE710F8013BCB1A921C03E013F8015B93
:100B600001F8015B521EF9D5A142D8D3002070BD17
:100B70000023B3EB920F1FD093085B4290ED000A65
:100B80000133B0EEC00A81ED000A90ED010AB0EE2B
:100B9000C00A81ED010A90ED020AB0EEC00A81EDB3
:100BA000020A90ED030A00F11000B0EEC00A81EDD8
:100BB000030A01F11001E1D112F0030208BF7047EE
:100BC000524200BF90ED000A013200F10400B0EE85
:100BD000C00A81ED000A01F10401F3D17047000061
:100BE0002DE9F0410027D0E900454FEA930E8068D7
:100BF000A7EB930C03F00303C3F1000895ED005A33
:100C0000D5ED010A95ED026A95ED037A90ED000AA3
:100C100090ED011A90ED022A90ED033A90ED044A0E
:100C2000BEF1000F62D06646174600BFD1ED001A34
:100C300061EE052A62EE200A24EE077A22EE055ABA
:100C4000013660EE213A72EEA32A63EE063A24EEF4
:100C5000066A70EEA20A73EEA00A37EE207A61EE01
:100C6000210A62EE211A87ED007AD1ED012A60EEA9
:100C7000223A70EEA30A63EE073A24EE077A35EEC5
:100C8000205A35EE235A36EE056A21EE225A62EEDC
:100C9000222A87ED016AD1ED020A60EE203A35EE94
:100CA000235A63EE063A24EE066A31EE855A61EE67
:100CB000201A35EE235A37EE057A87ED027A91ED48
:100CC000035A01F1100160EE053A71EEA31A63EECA
:100CD000073A72EEA11A71EEA31A36EE216A87ED79
:100CE000036A07F11007A1D101E000BF17461430D5
:100CF00033B34646F0EE451A91ED005AF0EE462A1F
:100D000062EE200A24EE077A013601F1040121EE99
:100D1000216A60EE053A36EE236A63EE223A30EE3F
:100D2000866AF0EE610A33EE866A37EE066AB0EE46
:100D3000627A87ED006A07F10407DBD104E000BFA7
:100D4000F0EE601AF0EE472A85ED005AC5ED011A63
:100D500085ED026AC5ED032A013C05F11005114637
:100D600008BFBDE8F08149E7B0B582600160054683
:100D7000090118461C46FFF7FAFA6C60B0BD000086
:100D8000B0B5E1B14FF0000C02EB4C0432F81C306E
:100D90000CF1020C64888C4523F0030324F0030457
:100DA00050F803E00559C55040F804E003440444FA
:100DB000D3F804E065685D60C4F804E0E4D3B0BD36
:100DC0002DE9F0410588984616460C460746012A4B
:100DD0000CD1E5B3201D294690ED000A0139B1EE92
:100DE000400A80ED000A00F10800F5D1FF2D0CDD6E
:100DF000B5F5806F10DBB5F5805F22D0B5F5006FDB
:100E000011D0B5F5806F17D021E03F2D10DC102DEB
:100E100012D0202D07D01AE0B5F5807F03D0B5F5AC
:100E2000007F0ED013E03846214600F007F90EE0AF
:100E3000402D06D0802D0AD13846214600F030F8EA
:100E400005E07A6820462946012300F0B9FBB8F195
:100E5000000F04D0BA68B9892046FFF791FF012E30
:100E60001CD100EE105A002DB8EE400A08BFBDE8B4
:100E7000F081B7EE001A81EE000A00BF94ED001A6F
:100E800094ED012A013D20EE011A20EE422A84ED64
:100E9000001A84ED012A04F10804EFD1BDE8F081C5
:100EA0002DE9F0472DED088B804600880023D8F807
:100EB000042001EB800A4FEA5009B3EBD00F00F099
:100EC000AD80C70801EB890C0AEB890E7C42002734
:100ED000C8190AEB07060CEB07030EEB07050134F4
:100EE00096ED000A90ED004A96ED011A90ED015A38
:100EF00096ED022A90ED026A96ED033A90ED037AA0
:100F0000D5ED000AD5ED011AD5ED022AD5ED033A4B
:100F1000D3ED004AD3ED015AD3ED026AD3ED037A43
:100F200034EE00BA37EE038A36EE029A35EE01AAA5
:100F300034EE400A35EE411A36EE422A37EE433A95
:100F400033EEE76A32EEE67A80ED00BA80ED01AA70
:100F500080ED029A80ED038A34EEA0BA35EEA1AAA4
:100F600037EEA38A36EEA29A02EB070071EEE51A7D
:100F700070EEE40A07F1100783ED00BA83ED01AAD1
:100F800083ED029A83ED038A90ED008A90ED019A39
:100F900020EE094A21EE085A21EE091A20EE080A2D
:100FA00035EE444A30EE010A21EE891A20EE885AC5
:100FB00061EE881A60EE890A86ED014A86ED000A24
:100FC00035EE010A30EEE11A85ED010A85ED001AD1
:100FD00090ED020A90ED031A22EE014A23EE005A28
:100FE00023EE013A22EE002A35EE444A32EE032A7D
:100FF00026EE013A27EE005A26EE000A27EE011AE5
:1010000086ED034A86ED022A35EE032A31EE400AC8
:1010100085ED032A85ED020A7FF45AAF084649465A
:10102000022300F0CDFAD8F80420504649460223A6
:10103000BDEC088BBDE8F04700F0C2BA2DE9F04FD7
:1010400081B02DED088B92B0B0F800C005904068DB
:1010500091ED000A91ED011A4FF000094FF0000BDD
:101060004FEA5C0206906FF001000F9101EB8203E2
:1010700000EB9C0703EB8205A9EB57006FF0030719
:1010800093ED004A93ED015A95ED002A95ED013A52
:1010900005EB8204119007EB820007EBC20E6FF0A4
:1010A000070794ED007AD4ED010A07EB02161090C1
:1010B00031EE036A70EE021A31EE431A30EE420A44
:1010C0000E9602EB420676EE052A71EE843A31EE78
:1010D000442A30EE053A31EE041A30EE450A36EE77
:1010E000456A71EEC41A07EB86004FEA9C074FEA87
:1010F000860A73EE873A72EEA02A32EE072A33EEA2
:10110000603A31EE471A30EE200A0D9001970293B3
:10111000049597000394C1ED003AC1ED012A83EDD7
:10112000003A83ED012A31EEC73A36EE602AD1004B
:1011300085ED003A85ED012A84ED000A84ED011A5F
:101140000024E0E00F98089407920B915A46CB4692
:10115000109900EB0E0400EB01090D990A97CDF8E8
:1011600030E0CDF824A0D4ED002A14ED015ADDF8CA
:1011700038A0D9ED001A59ED017A47180839D7ED92
:10118000010A00EB0A0ED7ED006A0798AAF1080AD7
:10119000DEED014A9EED004A71EEA03A37EEA69AC6
:1011A00073EEA25A75EEA45AC9ED005A54ED015AD5
:1011B0009EED008A79EE255A75EE885A49ED015A5E
:1011C000D9469346D3ED035A93ED028A09F10809F3
:1011D00002F1180B26EE25AA27EE08BA27EE257A8B
:1011E00026EE086A3BEE0AAA36EE476A32EEE47A49
:1011F00085ED02AA85ED036A31EEE06A77EEE60A34
:1012000076EE451A70EE876A71EE841A66EE887A79
:1012100021EEA5AA66EEA55A61EE881A7AEE677AE3
:1012200071EEA51AC4ED007A44ED011A089CD6EDC2
:10123000051AD6ED045A103462EE216A63EE257A5F
:1012400023EE213A22EE252A77EEA66A32EE432AD1
:1012500033EEE23ACCED026A8CED032A39EE452AF0
:1012600033EE643A32EE442A63EE653A23EE213AD5
:1012700062EE212A22EE252A73EEE22A33EE422A7A
:10128000C7ED012A87ED002A0A9F90ED072A90ED0D
:10129000063A1098083760EE021A61EE032A21EE32
:1012A000021A20EE030A083872EEA11A30EE410A43
:1012B00037EE601AC8ED021A88ED030A34EE450ACB
:1012C00021EE034A21EE021A30EE460A20EE025ABF
:1012D00020EE030A35EE444A30EE010A8EED014A53
:1012E0008EED000ADDF830E010901198AEF1080E96
:1012F000013011900D910B99CDF838A0DDF824A0A4
:1013000008310AF1080A0F9B119803EB090203EB5D
:10131000010CDD1903EB0A08069B00289CED020A6C
:1013200092ED022A95ED024A98ED026A9CED031AAD
:1013300092ED033A95ED035A98ED037A03EB040618
:1013400072EE000A73EE013A33EE411A32EE400AB1
:1013500070EE841A31EE042A70EEC40A30EE453A7B
:1013600031EE444A71EE861A33EE071A30EEC63A71
:10137000C2ED021AD5ED031AD8ED032A73EEA11AB5
:1013800071EEA21AC2ED031A73EEC51A30EE055AB9
:1013900032EE460A03EB0B024B4434EE066A31EEA2
:1013A000C72A35EE477A7FF4CDAE93ED024A93ED2E
:1013B000035A0F98042367EE050A66EE041A26EE18
:1013C000055A27EE044A34EE054A31EEE06A85ED0F
:1013D000024A85ED036A019D96ED044A96ED055A91
:1013E000294623EE056A22EE047A23EE043A22EE21
:1013F000052A33EE022A37EE464A8CED022A8CED9E
:10140000034A92ED062A92ED073A069A21EE034A24
:1014100020EE025A21EE021A20EE030A31EE000AF3
:1014200035EE442A88ED020A88ED032A00F0C8F858
:10143000059C029829460423626800F0C1F862689E
:1014400004982946042300F0BBF8626803982946F3
:10145000042312B0BDEC088B01B000F002B800F01C
:10146000AFB830BCBDE8C04FFFF7F9BFF0B54C1EB8
:101470004FF0000C90ED000A00F1040EBCEB940F4D
:1014800040D0A708012625464FF0000C66F3010561
:101490007E4204279EED001A9EED012A9EED023A3F
:1014A0009EED034A01360EF1100EB4EEC10AF1EEC4
:1014B00010FABCBFA7F1030CB0EE410AB4EEC20AA9
:1014C000F1EE10FABCBFA7F1020CB0EE420AB4EE86
:1014D000C30AF1EE10FABCBFA7F1010CB0EE430A4B
:1014E000B4EEC40AF1EE10FAB4EEC40AB8BFBC46BA
:1014F0000437F1EE10FAB8BFB0EE440A002EC9D19D
:1015000000EB850E14F0030012D040429EED001A4D
:101510000EF1040EB4EEC10AF1EE10FAB8BF01EB01
:10152000000C00F10100B8BFB0EE410A0028EDD177
:1015300082ED000AC3F800C0F0BD00000023B3EB49
:10154000910F22D080B58B089FED1C0A21F0030C6F
:10155000C3F1000E034600BF93ED001A93ED012A7C
:1015600093ED023A93ED034A10331EF1010E30EE73
:10157000010A30EE020A30EE030A30EE040AEBD123
:1015800000EB8C00BDE8804001E09FED0C0A11F0FB
:10159000030309D05B4200BF90ED001A013300F154
:1015A000040030EE010AF7D101EE101AB8EE411A2C
:1015B00080EE010A82ED000A704700BF00000000C3
:1015C0002DE9F04F81B02DED108BA0B09FED050AF5
:1015D000CDE903328C46019004301B9102900846FD
:1015E00002E000BFF304353F4FEADC064FEACC07C8
:1015F0004FF0000BF30006EB860235010896A3EBD3
:10160000DC00D100C0001A9006EB46007601C40051
:1016100000012246029CCDE91E7CCDE90C01CDE9FA
:101620001C6500BF0C9804EB03091F461A9B04EBD2
:1016300001082644254404EB020E14ED017ADDF87E
:101640007CC0114656ED010A1EED012A18ED013A43
:1016500019ED014A15ED016A04EB030A20443B46EB
:10166000E3441AED011A10ED015A77EE204A74EEA8
:10167000032A37EE607A72EE011A76EE053A32EE00
:10168000411A34EE432A36EE455A72EEA15A74EEF0
:10169000A36A34EEE33A72EEE11A76EEA57A76EEBC
:1016A000E55A44ED017A46ED015ADAED005ADEEDD5
:1016B000006AD8ED007A99ED008A90ED009A95EDD8
:1016C00000AA96ED00BA94ED00CA36EEA5DA38EE1F
:1016D00027EA3AEE09FA7CEE0B8A36EEE54A78EE16
:1016E000673A72EE415A32EE011A3CEE4B6A7EEED8
:1016F0000D9A78EE8FAA3EEE4DDA73EE842A78EEDC
:10170000CF6A65EE800A33EEC42A21EE001A7AEE23
:10171000A9BA73EE0D4A7AEEE99A33EE4D3A62EECB
:10172000802A76EEE15A71EEA61A22EE002A37EEF2
:10173000604AC4ED00BAC6ED009A45ED014A7AEE62
:10174000494A00ED013A37EE203AC5ED005AC0EDA6
:10175000001A76EE021A36EE422A74EEA27A34EEBF
:10176000E27A73EE275A33EE673A74EE070A34EEE4
:10177000474A49ED015A0AED013A35EE013A48ED82
:10178000010A0EED014A35EE411A31EEC37A33EE0D
:10179000213A32EE414A31EE021A89ED007A8AEDA1
:1017A000003ADDE91C651E9F1B980D9988ED004AE3
:1017B0008EED001A3C448345FFF434AFBCF1400F7A
:1017C000C0F0C9810398DDF8048000250127079245
:1017D0000E9380B206900898C0EBC000C000059040
:1017E0000698049CCDF824800A97DFEDDE2A054494
:1017F00005EB850305EB45020B95D900D00004EB02
:10180000C3030431043004EB010E04EB451104EB77
:10181000000CC5EBC50091ED000A04EB0511DCEDF1
:10182000006AC446DEED005ADDF81C808DED1A0A10
:1018300091ED000A04EBC5018DED190A91ED000A46
:1018400004EBC001C00004308DED180A91ED000AD0
:1018500004EB021120448DED170A91ED000A1101ED
:1018600004EBC20204318DED160A93ED000AEB0081
:1018700004EB01096901043304318DED150A92ED81
:10188000000A2A012344043222440C448DED140A38
:1018900094ED000A8DED130A92ED000A8DED120A07
:1018A00093ED000A3B468DED110A90ED000A8DED97
:1018B000100A99ED000A8DED0F0ADDE90C15059F60
:1018C0001D980CEB060B0CEB01090CEB05020CEB65
:1018D000070E9CED02DA9CED03EADDED1A3ADDED30
:1018E000134A1C9E9BED02FADEED027A92ED029AFB
:1018F00099ED02BA0CEB000A0E989AED02CA7DEE41
:101900000FBA0CEB00040CEB080090ED028A94ED8A
:1019100002AA7CEE0BAA7BEEAADA78EE278A7AEE90
:10192000099A78EE677A3AEE498A79EEA8CA38EED3
:10193000670A78EE277A79EEE88A7DEEACEA7DEEEA
:10194000ECCA20EE220A67EEA27ACCED02EA63EE40
:10195000AC0A64EEACCADBED03DA9EED039A90EDBF
:1019600003AAD2ED03EAD4ED03FA99ED031A9AED36
:10197000032A32EE013A3EEE2D4A7AEE099A3FEE04
:10198000AE8A32EE411A38EE295A34EE036A34EE4A
:10199000433A38EE698A3BEEEA4A36EE457A36EE4D
:1019A000055A3AEE496A3FEEEE9A39EE46AA64EEDF
:1019B000871A39EE066A23EE877ADDED124ADDEDED
:1019C000193A8CED035A34EE085A3DEE4F9A34EE34
:1019D000484A26EE222A37EE6C6A30EEA17A73EE80
:1019E000680A7CEE4B1A38EE833A3EEE6DCA2AEE58
:1019F00022AA39EE008A39EE400A24EE85BA23EE97
:101A0000A0DA23EE855A64EEA00ADDED0F4ADDED83
:101A1000163A8BED027A8BED036A31EE02EA31EE73
:101A2000A77A31EE421A31EEE72A7CEE4A1A3DEEF1
:101A30004B6A30EE855A3CEE0ABA38EE0EFA38EEB2
:101A40004E8A70EE017A30EE410A32EE211A64EECF
:101A5000840A23EE83DA8AED025A23EE844ADDED0E
:101A6000183A24EE833A7BEE478A8AED036A37EE12
:101A70000B7A3DEE605ADDED110A33EE043A23EEA7
:101A8000A86A23EE8FDA89ED023ADDED103A89ED8E
:101A9000035A20EE8F4A60EEA80A36EE443A3DEE35
:101AA000204ADDED170A23EE885A84ED024A84EDC0
:101AB000033A20EE876A60EE880A23EE877A31EED9
:101AC000C28A30EE874ADDED150A36EE453A25EE3C
:101AD000A75A25EE887A8EED024A8EED033A26EE5D
:101AE000804A20EE886A60EEA70A36EE452A9DED10
:101AF000146A30EE873A82ED023A82ED032A26EE2E
:101B0000015A26EE811A26EE000A30EE010A35EE61
:101B1000442A80ED020A80ED032A1E9884441F980F
:101B200003441B988342FFF4CBAE0A9FDDF8248068
:101B300008980B9D013708F108088742FFF450AE62
:101B40000398DDF820C09FED070AC00003901F989E
:101B50003F283FF649AD20B000F006B801B000F0D4
:101B600009B800BFF304353FBDEC088BBDEC08CBD2
:101B7000FFF7F4BF30BCBDE8C08F0000B0B52DED5D
:101B8000028B15460022B2EB910F25D08A089FEDFB
:101B90002A0A0446534221F0030200BF94ED001AC2
:101BA00094ED012A94ED023A94ED034A1034013386
:101BB00021EE011A22EE022A30EE010A23EE031A68
:101BC00030EE020A24EE042A30EE010A30EE020A58
:101BD000E4D100EB820001E09FED170A11F003024F
:101BE0000AD0524290ED001A013200F1040021EEB9
:101BF000011A30EE010AF5D101EE101AB8EE411AC1
:101C000080EE018AB5EEC08AF1EE10FA02DA9FED9D
:101C10000A0A0CE0B0EE480A07F04AFCB4EEC00A2B
:101C2000F1EE10FA03D7B0EE480A07F041FC85ED5B
:101C3000000ABDEC028BB0BD0000000010B5714879
:101C40004078402871D024DC0A2876D008DC0A28A5
:101C50004BD2DFE800F055614C4F525B787BB8B156
:101C6000162846D00CDC122861D004DC0B2850D09A
:101C700011283AD147E013285CD0152835D17FE0F0
:101C800017286FD018286ED019287FD030282CD173
:101C900045E0722869D014DC55286BD008DCA0F12F
:101CA0005000052821D2DFE800F05A3D5462570069
:101CB000562877D0572843D068287AD0692814D17D
:101CC00074E0822867D008DC73286ED0752863D052
:101CD000762864D0802808D17EE0832879D08428B3
:101CE0006ED0882872D0EA286CD0012010BD08F090
:101CF0008DF885E007F056FF82E008F055FB7FE0A5
:101D000009F0CEF87CE008F0C5F879E008F0C2FFF1
:101D100076E009F039F873E009F09CF870E008F01B
:101D20003FFC6DE008F08AFD6AE026E005E008F07F
:101D3000A5F865E008F002FE62E008F0DBFD5FE078
:101D400008F05AF95CE008F0CBF859E008F072FCB2
:101D500056E008F017FF53E008F0C0FB50E008F031
:101D60006DFF4DE00FE040E010E041E002E008F0E0
:101D7000B5FA45E007F0ECFE42E007F041FF3FE036
:101D800008F0A4FC3CE008F0DBFD39E008F060F965
:101D900036E007E00DE022E008F00AFE30E008F04F
:101DA0008FF92DE008F0C2F92AE024E007F0B0FE38
:101DB00026E007F051FE23E008F028FE20E008E0CE
:101DC00010E003E01AE008F0DBF919E008F0A8FEE3
:101DD00016E007F0E3FF13E008F052FA10E007F016
:101DE0003FFF0DE008F0F0FB0AE008F0F3FB07E02E
:101DF00008F0E2FC04E008F0B5F801E007F01AFF93
:101E0000012010BD942C06202DE9F04F2DED028B02
:101E100085B00024A3465248006801218143002672
:101E200040F20A2000274F4A02EB014204924E4A38
:101E300001EB410102EB8139DFED4C8AC1B2000AAE
:101E4000039102904A48B0F82E11F94011F0010FA9
:101E50007CD037B1012F06D0022F06D0032F09D135
:101E600006E0049D06E04D4604E009F5804501E0EA
:101E700009F5004500EB870A9AED350ADAED040A08
:101E800020EE200ADAED170A20EE280A80EE208ADA
:101E90004FF00008DAF8C401002857D9781CC0B206
:101EA0000190B5F9000000EE100AB8EEC00AAD1CB2
:101EB00020EE080ABDEEC00A10EE100A2D4901EB13
:101EC0000B029073030AD37318442044C4B20BF17D
:101ED000020BBBF5007F33D37E220A70702048705E
:101EE000039888700298C87001980871224B18886E
:101EF0004871000A88719878C871D8780872187982
:101F00004872587988729879C8720E73300A48738B
:101F100001200B5C2344DCB2401C0E28F9D381F86D
:101F20000E4281F80F22701C86B24FF404711148E2
:101F300006F06AFB4FF0000B0024012009F0EAFCD8
:101F400008F10108DAF8C4014045AAD87F1C032F24
:101F5000FFF478AF05B0BDEC028B00F00FB80000C5
:101F6000340C0020D81B0020D81B02200080BB446A
:101F70002800002014200620B00C002030BCBDE852
:101F8000C08F00002DE9F047604D7E262E70742032
:101F9000687000245E4908882871000A6871887892
:101FA000A871C878E87108792872487968728879C8
:101FB000A8720AF0DDFB0021DFF8588105F54B77A8
:101FC00008EB810202F5AC6304EBC40000EB0410E3
:101FD000284493F800C080F80BC093F801C080F843
:101FE0000CC093F802C080F80DC0DB78837301EB5E
:101FF000810C17F80C30C37302F5086393F8009056
:1020000080F8109093F8019080F8119093F8029066
:1020100080F81290DB78C374BC449CF801300375DF
:1020200002F50B6393F8009080F8159093F80190F7
:1020300080F8169093F8029080F81790DB7803767A
:102040009CF80230437602F5E26393F8009080F842
:102050001A9093F8019080F81B9093F8029080F802
:102060001C90DB7843779CF80330837702F50E628F
:102070001378C377537880F82030937880F8213034
:10208000D27880F822209CF8042080F82320641C59
:10209000491C032994D308F50970017885F8561076
:1020A000417885F85710817885F85810C07885F800
:1020B0005900F87B85F85A001748017885F85B10BD
:1020C000417885F85C10817885F85D10C07885F8D6
:1020D0005E00387C85F85F005C20A8700020E87006
:1020E00085F86000012095F860102A5C114485F89D
:1020F0006010401CC0B26028F5D385F86160622191
:10210000024806F081FA0120BDE8F087D41C0620C1
:10211000B00C0020A00D0020B8020020FEE7000057
:10212000014801F005BA00008C5B0620014801F06F
:10213000FFB90000EC5B06200F4B416C026821F0F8
:1021400003019A4205D201F1804101F50231816417
:1021500002E00A4B19448164D1B2094A0839A2FB52
:1021600001210909074AC26401F01C01012202FA97
:1021700001F1016570470000080402401C0802409C
:10218000CDCCCCCC800802400179074A491E02EB35
:1021900081024265054A826501F00301012202FACB
:1021A00001F1C1657047000000090240400902408A
:1021B00010B4C46CD0F850C0C4F804C0D0F854C0F7
:1021C000BCF1000F04D0846DD0F85CC0C4F804C02A
:1021D00090F844C001240CF01C0C04FA0CFC046CB4
:1021E000C4F804C0D0F800C0CCF804308368102BC9
:1021F00005D0036899600068C26010BC704703682E
:102200009A600068C16010BC704700002DED028B21
:1022100000265A4C5A4D5B4F9FED5B8ADFED5B8A7F
:10222000DFF86C81DFF86C91DFF86CA1DFF86CB13E
:1022300099E097F8B801012811D1D5F8980DD7F891
:10224000B411401C884208D3D5F8C80240F02000E1
:10225000C5F8C802C5F8986D01E0C5F8980D50485A
:1022600004F01AFBA060012007F0E6FB95F8C80215
:1022700010F0200F12D097F82C0101280ED100F099
:10228000C5FA95F80C0348B9FFF77CFEFFF7BCFDD3
:10229000D5F8C80220F02000C5F8C80297F820023F
:1022A000012860D107F0C8FB6068401C606097F8A7
:1022B0002312814257D2E66097EDA40A30EE480A15
:1022C00087EDA40AB5EEC00AF1EE10FA01D8C7ED09
:1022D000A48A04F001FF0AF029FB05E00A2009F0B6
:1022E00019FBE068401CE06095F8060318B9E06847
:1022F000B0F5C87FF2D3012009F00CFB00F094FD8B
:10230000012809D100F08AFD00F080FAFFF73AFEBB
:10231000FFF77AFD05F09AF895F80C0301281BD019
:1023200004F0DAFE4FF47A6009F0F4FA172001F0B5
:10233000D9FC1E2001F0D6FCD8F8000009F096FC6C
:10234000D9F8000009F092FCDAF8000009F08EFCE0
:10235000DBF8000009F08AFC642009F0DBFA114880
:10236000006809F083FC10484FF0FF31006809F065
:1023700029FB97F82002002890D15AE7440C00204E
:10238000A00D0020280000200AD7A33C0000000078
:10239000140000200800002010000020040000208D
:1023A000B00C00200C0000201C00002082B09FED2B
:1023B000E50A8DED010A8DED000AE34E4FF400476A
:1023C000B7600020E24AE149E24C4FF0006B02F1B5
:1023D000500C02F1100502F1200802F1400982467A
:1023E00045F820B048F820A0DFF86CE34EF820A0B4
:1023F00004EB800E8EED6E0A49F820A041F820A073
:1024000002F800A04CF820A0D44B43F820A003F120
:10241000300E4EF820A0401C0428E1D3322009F0F1
:1024200079FA04F053FE012001F0A4F904F054FEFF
:10243000CB4900200880CB490860DFF82CA3CAF8FC
:102440000000CA490870C5F800B0C948418849036E
:102450006960C0884003A86008F09AFD94F80C03F6
:10246000012801D104F032FE40F6FF7B00F05FB995
:10247000C0484FF400430380BF4A5168490B418074
:1024800083809268520BC280038141818381C28123
:1024900000203070B449B748096800EB41050027B7
:1024A000DFF8D8A200242888B54931F8141031612A
:1024B000B449326921F81200B34932690A4492F8EA
:1024C0004120032A08D03269114491F841100029B3
:1024D00000F0058100F004B932692AB3A64A3369D5
:1024E00052F823C041F6FF738CFB033C5B0B43EABD
:1024F000CC43D6F810C01B1842F82C30336952F880
:102500002320A0EB6230326901EB8202D2F8C421B1
:10251000B2F5005F7AD0326901EB8201D1F8C411C3
:10252000B1F5006F71D0B3E0934B326953F82220BC
:1025300082FB0B2C120B42EA0C52D6F810C0121878
:1025400043F82C20326953F82220A0EB2230326964
:1025500001EB8202D2F8C421B2F5804F10D032696B
:1025600001EB8202D2F8C421B2F5005F4BD0326990
:1025700001EB8201D1F8C411B1F5006F22D087E0E0
:1025800031694BF2EC0259F821100918A1FB021233
:10259000326946F2D91358F8222002FB03F2891A55
:1025A000326948F822103169326958F821104FEA2F
:1025B000214148F82210316949F82100306958F862
:1025C000200065E0316941F6833259F8211009187D
:1025D000A1FB021232694CF6F80358F8222002FBE4
:1025E00003F28918326948F822103169326958F8C3
:1025F00021104FEA214148F82210316949F82100A1
:10260000306958F8200043E000E021E0316949F2E8
:10261000696259F821100918A1FB0212326942F6C9
:10262000D34358F8222002FB03F2891A326948F892
:1026300022103169326958F821104FEA214148F8D7
:102640002210316949F82100306958F820001FE054
:10265000316943F2462259F821100918A1FB0212F0
:10266000326949F6723358F8222002FB03F28918C6
:10267000326948F8221058F8241032694FEA214193
:1026800048F82210316949F82100306958F82000D3
:10269000324B316903EB81010A6802F101020A60E1
:1026A0003169D6F810C053F821202A4901EB8C017A
:1026B000D1F828118A4213D33269002143F822103D
:1026C00031695AF82120316900B2C9B205F042FFE0
:1026D00030690AEB80000168491C016000E0B060CD
:1026E000AD1CF068401CF060641C082CFFF4DBAEED
:1026F000F068B0F5004F16D304F062F90020174BD4
:102700005246002142F8201043F82010401C0428B3
:10271000F8D33046F16042680121914341601B4883
:10272000006809F0F9F97F1C802FFFF4BBAE184850
:102730004FF0FF31006809F045F9307800283FF488
:10274000A9AE95E600000000300C0020981B002088
:10275000D89B0320A00D0020089C0320389C032058
:10276000A60C0020A80C0020AC0C0020A00C00201F
:10277000384A0620484A0620E89B0320689C03202C
:102780000CE20208989C0320280000201C00002076
:10279000180000207047000010B5202001F004F957
:1027A00002484168491C416010BD0000D80C00205F
:1027B00070B50D46114CE06811494FF400420A61B2
:1027C00000F058FE2060E068284400F053FE2168C5
:1027D000401A401C6060E06800F01CFEA0600949DF
:1027E00000220A604860206888606068C86004F160
:1027F0001001BDE87040034800F0D0BFC00C0020BD
:10280000002002404C650720704700002DE9F04F82
:102810002DED0C8B8DB0DFEDDE9ADE4800680121D6
:1028200021EA000000259FEDDCCADC4901EB0047EE
:10283000DB4900EB400001EB80309FEDDAAADFEDD1
:10284000DAAA9FEDDABADFEDDACA9FEDDADADFF85D
:102850006893DFEDDABADFF868B3A9F5C0380C90F9
:102860000BEB850494ED040AD4ED350A20EE200A22
:1028700060EE0C0A1DB30020D4F8C431002B12D92D
:102880000C9A691E02EB813131F9102000EE102AFA
:1028900008EB8002B8EEC00A20EE200A82ED000AA2
:1028A000401C8342F0D8D4F8C401B0F5805F61D0F9
:1028B000B0F5005F3CD0B0F5804F7CD116E0002031
:1028C000DBF8C4110029EED9D4F8C42137F910106F
:1028D00000EE101A08EB8001B8EEC00A20EE200AC4
:1028E00081ED000A401C8242F0D8DCE7B54BB64AC5
:1028F000022103F12000FEF737FAAF4AB348A2F5F0
:10290000C031D4F8C431FEF76BF9B0EE4A9A00201A
:10291000AF4909EB001292ED000A01EB800220EEB4
:10292000090A82ED000A401CB0F5804FF1D342E065
:10293000A44BA84A022103F12000FEF715FA9E4A93
:10294000A248A2F5C031D4F8C431FEF749F9B0EE7F
:102950006A0A00209E4909EBC002D2ED000A01EB91
:10296000800260EE800AC2ED000A401CB0F5005FF4
:10297000F1D320E0934B984A022103F12000FEF7A7
:10298000F3F98D4A9148A2F5C031D4F8C431FEF76D
:1029900027F9B0EE4B8A00208D4909EB800292EDB9
:1029A000000A01EB800220EE080A82ED000A401CBA
:1029B000B0F5805FF1D389484FF4805100EB850674
:1029C00006F505628248FFF7D9F801224FF47A7ABA
:1029D00011030423B0EE6C0A0846CDF800A008F0FD
:1029E0005BFC7F49A1F5804008F03CFB06F50862DE
:1029F0004FF480517A48FFF7C1F80222D1020A232E
:102A0000B0EE4D0A0846CDF800A008F045FC744928
:102A1000A1F5804008F026FB06F50B624FF48051CB
:102A20006F48FFF7ABF808A800EB850A52466D48DF
:102A3000D4F8C411FEF782FD0020D4F8C411002997
:102A400010D99AED000A08EB8002D2ED000A70EE70
:102A5000C00AC2ED000A09EB8002C2ED000A401C68
:102A60008142F0D806F5AC625E48FFF787F8002097
:102A7000D4F8C41100290ED908EB8002D2ED000A67
:102A800020EEA00A20EE200A20EE200A82ED000AA5
:102A9000401C8142F0D806F5BE625248FFF76EF83E
:102AA00006F5806A9AED580A60EE000A60EE800A28
:102AB00020EE800ADAED7C0A80EE801A8AEDC41AD4
:102AC000F5BBDBF8C401B0F5804F49D13D4B464A18
:102AD000022103F12000FEF747F9424A3B4802F584
:102AE000C031DBF8C431FEF77BF8F0EE6B8A0020D2
:102AF00008EB800191ED000A20EE280A81ED000A22
:102B0000401CB0F5804FF3D32B494FF48042A1F520
:102B1000C030FEF72DF82B4B344A022103F1200080
:102B2000FEF722F92F4A294802F5C031D4F8C43102
:102B3000FEF756F89FED2E8A02A800EB850200E012
:102B40000EE0144607AB4FF480412648FEF78EFC9A
:102B500094ED000A06F5006020EE080A80ED380AC0
:102B6000DAF86001B0F17A5F09DA06F50060C0EDCD
:102B7000209AC0ED2C9ACAEDC49AC0ED389A6D1C0B
:102B8000032DFFF46DAE0DB000F034B800F038B88E
:102B900000000000340C00209D7F3B3DD81B00202E
:102BA000D81B02203FCE913BE504313DA321CC3E12
:102BB00000007A4400247449A81C0520B3FDCD3ED2
:102BC00028000020A81C06202CE10208C81C0620B2
:102BD000A89C042054E102087CE10208A00D00201A
:102BE000A8DC0420A89C0320A4E10208CCE1020890
:102BF00092C5603ABDEC088BBDEC04CBFFF7C6BFB5
:102C000030BCBDE8C08F704700244FF4486008F026
:102C100081FE01225103644800F0ECFF642000F0C3
:102C2000A9FDDFF888A100224FF40061504600F0B2
:102C3000E1FF5F4FDFF87C815F4DDFF880B1DFF8A7
:102C400080910026388800287ED03E8098F8303168
:102C500008F28B1208F29F1108F2771000F04CF97D
:102C6000032008F057FE09F0D9FE08F2451108F2DA
:102C7000311000F0DFF8032008F04CFE08F26D116F
:102C800008F2591000F0CAF9032008F043FE00F0E2
:102C900021FA06E0012006F0CFFE0A2008F03AFEF5
:102CA000641C288810B9B4F5966FF3D340F2AE4097
:102CB000844238D901225446D102204600F09AFFBE
:102CC000642008F027FE00224FF40061204600F047
:102CD00091FF4FF4C87008F01DFE3E80012339A219
:102CE0003CA140A000F008F9032008F013FE41A128
:102CF00041A000F09FF8032008F00CFE41A143A082
:102D000000F08CF9032008F005FE00F0E3F92888B4
:102D100040B9012006F090FE142008F0FBFD288841
:102D20000028F6D03E800024012089F80603D9F857
:102D3000C80220F00200C9F8C80206F033FF07F00D
:102D400065F807F09DFA00E013E007F055F907F089
:102D5000C7F807F0C3FA07F0C1FB07F0E7F907F07F
:102D600077F907F00DFA07F0FDF807F0A9F900F080
:102D70004FF9BBF8000080B189F806632E80ABF8EC
:102D8000006098F82C0102280BD004F0A5F9D9F8BE
:102D9000C80220F00400C9F8C802022008F0BAFDF9
:102DA00050E704F099F9F2E700040048000C0048ED
:102DB000740C002028000020760C0020780C0020E5
:102DC000A00D00203235352E3235352E3235352ED8
:102DD000300000003139322E3136382E3130302E6D
:102DE000310000003139322E3136382E3130302E5C
:102DF00031320000000000007965632D7465737442
:102E00000000000038373132000000003139322E26
:102E10003136382E3130302E323334000149002023
:102E2000087070479C0C0020014800787047000033
:102E30009C0C00202DE9F05F07460E463846FDF752
:102E4000A1FAC4B23046FDF79DFAC2B2DFF898800D
:102E5000A51805F10A0CA8F800C0244B4FF07E0914
:102E600083F80090E5205870ACF106009870000AD5
:102E7000D870002018715C710021002C09D903EB77
:102E8000010B17F801A08BF806A0491CC9B2A1429A
:102E9000F5D3012719198F71CA710021002A09D9A8
:102EA00004EB010A9A44775C8AF80870491CC9B29D
:102EB0009142F5D3E9180872012005F10802012AB0
:102EC00007D90C7A1D5C2C440C72401CC0B28242A3
:102ED000F7D881F80990A8F800C06146034805F0CA
:102EE00093FB012000F004B87C0C0020D4320620B3
:102EF00030BCBDE8C09F00002DE9FF5F80460E4654
:102F000017464046FDF73EFAC4B23046FDF73AFA9E
:102F1000C5B23846FDF736FAC3B204EB050CDFF84C
:102F2000E0E00CEB030202F10F09AEF80090DFF8CD
:102F3000D4A07E208AF80000E4208AF80100A9F1DC
:102F400006008AF80200000A8AF8030000208AF8C6
:102F500004008AF80540002C09D90AEB000B18F888
:102F600000108BF80610401CC0B2A042F5D30AEB4B
:102F700004004FF0010880F80680C5710020002D84
:102F800009D904EB000BD344315C8BF80810401CCA
:102F9000C0B2A842F5D30CEB0A00022101724372C1
:102FA0000020002B08D90CEB00045444395CA172BA
:102FB000401CC0B29842F6D302EB0A01032088728B
:102FC00081F80B80039808730020487301200D32AC
:102FD000012A08D94B7B1AF800C063444B73401C8C
:102FE000C0B28242F6D87E208873AEF8009049467F
:102FF000044805F009FB04B0012000F005B800000A
:103000007C0C0020D432062030BCBDE8C09F0000FC
:1030100001490120087070479C0C00202DE9F04701
:1030200005460E462846FDF7ADF9C4B23046FDF719
:10303000A9F9C2B2254F10190A303880244B4FF03D
:103040007E0883F80080E7215970801F9870000A7D
:10305000D8704FF0000C83F804C05C710020002C85
:1030600008D903EB0009295C89F80610401CC0B29E
:10307000A042F6D3012118198171C2710020002AE3
:1030800007D925181D44315C2972401CC0B29042FA
:10309000F7D32244D11881F808C0012002F1080CAE
:1030A000BCF1010F07D90C7A1D5C2C440C72401C3A
:1030B000C0B28445F7D881F8098002F10A0139804D
:1030C000034805F0A1FA0120BDE8F0877C0C002040
:1030D000D432062010B509487E230370FF214170C9
:1030E00000228270C270017143710548062101807F
:1030F000024805F089FA012010BD0000D4320620F4
:103100007C0C0020124A107F1249012801D00328AC
:103110000BD10B6843F400630B600B6823F400636E
:103120000B600B6843F400730B60022801D0032886
:103130000BD1086840F480500860086820F4805083
:103140000860086840F480600860002010777047CD
:10315000F40C0020002002400E490A6A12F4800F8D
:103160000ED010F0010F03D04A6942F004024A6108
:1031700010F0020F09D0486940F40040486104E0B3
:10318000486948F2040210434861486940F48030BD
:103190004861704700200240114A136A13F4800FFF
:1031A00007D011F0010F09D0516921F4006151617C
:1031B00008E0516921F40061516103E0516941F473
:1031C00000615161516960F3CA015161506940F079
:1031D00002005061506940F4803050617047000037
:1031E000002002400549D1F814C04CF0010CC1F890
:1031F00014C00260BFF36F8F43607047002002402D
:1032000080220A4BD3F814C04CF4802CC3F814C0AD
:10321000EFF3108C72B60B680360001D091D521E7F
:10322000D2B2002AF7D18CF31088704700200240F8
:1032300070B5044600F0E4FC06461B4D286910F406
:10324000803F0DD0B4F1FF3F06D000F0D9FC801BC9
:10325000A04201D3032070BD286910F4803FF1D152
:10326000286912490840A96901F00041084398B152
:103270000F494A6802434A6010F0404F04D0A969E0
:1032800000F040421143A96130F0404102D020F0EB
:1032900040402861012070BD286910F0010F01D065
:1032A00001202861002070BD00200240FAC3020006
:1032B000F40C002010B586B04D4CE06C40F00100DD
:1032C000E064E06C00F001000090E06C40F002006F
:1032D000E064E06C00F002000090E06C40F004005C
:1032E000E064E06C00F004000090E06C40F0080046
:1032F000E064E06C00F008000090E06C40F010002A
:10330000E064E06C00F010000090E06C40F0200001
:10331000E064E06C00F020000090E06C40F04000C1
:10332000E064E06C00F040000090E06C40F0800051
:10333000E064E06C00F080000090E06C40F480708D
:10334000E064E06C00F480700090032002900020A4
:1033500003904FF6FF70019001A94FF0904000F0EC
:103360002FFB01A9234800F02BFB01A9224800F004
:1033700027FB01A9214800F023FB01A9204800F008
:103380001FFB01A91F4800F01BFB01A91E4800F00C
:1033900017FB01A91D4800F013FB01A91C4800F010
:1033A0000FFBE06C20F00100E064E06C20F0040012
:1033B000E064E06C20F00400E064E06C20F00800C1
:1033C000E064E06C20F01000E064E06C20F020008D
:1033D000E064E06C20F04000E064E06C20F08000ED
:1033E000E064E06C20F48070E06406B010BD000082
:1033F000001002400004004800080048000C00488B
:10340000001000480014004800180048001C004844
:1034100000200048154909684FF0006311F4807FCF
:1034200013490A686FEA02010AD00904090C17D08F
:103430001104890903EB5101814214D9022070471C
:103440000904090C07D01104890903EB51018142D9
:1034500004D9012070474FF40011F6E702207047AD
:103460004FF40011E6E70120704700000000014022
:10347000E075FF1F11490968CA4313041B0C0BD0E8
:103480000B049B094FF0006C0CEB5303834206D9ED
:10349000A0F10060000B70474FF40013F2E7120434
:1034A000120C07D009048909A0EB5100A0F10060BB
:1034B000000B70474FF40011F6E70000E075FF1FA6
:1034C00010B5002490F82510022903D00421C1630F
:1034D00001242BE001680A6822F00E020A600168EC
:1034E0000A6822F001020A60816C0A6822F4807284
:1034F0000A6090F84410036C01F01C01012202FAEA
:1035000001F15960C36C016D5960416D31B10B68B7
:1035100023F480730B60836DC16D596080F82520A2
:10352000002180F82410816B01B18847204610BD2E
:10353000F0B4016C0A6801680B6890F844C0042478
:103540000CF01C0C04FA0CF5154217D013F0040F04
:1035500014D00A6812F0200F03D10A6822F0040286
:103560000A6090F84410026C01F01C0104FA01F1A9
:103570005160016B002945D0F0BC0847022505FACF
:103580000CF414424FF000064FF001041BD013F06E
:10359000020F18D00A6812F0200F05D10A6822F035
:1035A0000A020A6080F8254090F84410026C01F08D
:1035B0001C0105FA01F1516080F82460C16A0029FC
:1035C00020D0F0BC0847082505FA0CFC1CEA020FC5
:1035D00018D013F0080F15D00A6822F00E020A6006
:1035E00090F84410026C01F01C0104FA01F15160E2
:1035F000C46380F8254080F82460416B002901D025
:10360000F0BC0847F0BC704770B50446002C0ED0E3
:103610002B4A20682B4990420BD22B4A0244A1FB33
:103620000221090989006164284921640AE0012016
:1036300070BD274A0244A1FB022109098900616487
:1036400024492164022184F8251001686FF30E11CA
:10365000E368A268D4F814C01A43236943EA0C0350
:103660001A43A3691A43E3691A43236A1A431143AD
:1036700001602046FEF760FDA0680025B0F5804F90
:1036800000D16560A16C20790860E16C206D486014
:103690006068401E032808D82046FEF775FD606D5F
:1036A0000560A16DE06D486002E06565A565E565B2
:1036B000E563012084F8250084F82450002070BDC3
:1036C00008040240CDCCCCCCF8FFFDBF0000024086
:1036D000F8FBFDBF0004024070B50446002594F8D5
:1036E000240001280DD0012084F8240094F825C07E
:1036F0000020BCF1010F06D084F8240002252846E2
:1037000070BD022070BD4FF0020C84F825C0E0634C
:103710002068D0F800C02CF0010CC0F800C0204692
:10372000FEF746FD206B28B12068016841F00E01CC
:10373000016009E02068016821F00401016020684F
:10374000016841F00A010160A06C016811F4803F3A
:1037500003D0016841F480710160606D18B10168A7
:1037600041F4807101602068016841F0010101604D
:10377000C5E7000070B5044600F042FA0546B4F112
:10378000FF3F02D004484068044400F039FA401B6F
:10379000A042FAD370BD0000E80C00202DE9F047EC
:1037A00004460F46DFF8F08098F8000001280DD09D
:1037B000012588F800504CF25030FFF739FD824661
:1037C0004FF00009BAF1000F03D060E00220BDE81D
:1037D000F087C8F80490314E306810F4007F12D0A2
:1037E000306820F400703060306810F4806F07D0CB
:1037F000306820F480603060032088F81C0010E0FE
:1038000088F81C500DE0306810F4806F07D03068E5
:1038100020F480603060022088F81C0001E088F805
:103820001C90206801281BD04FF0FF303860A5683D
:10383000E0682844A84228D928466168FFF7ACFC14
:103840004CF25030FFF7F4FC8246706920F4FD70B2
:1038500020F4C06070615FEA0A0010D03D6014E09F
:103860006068FFF779FC4CF25030FFF7E1FC8246CC
:10387000706920F0040020F40040706105E06D1CC8
:10388000E168A0680844A842D6D8FFF73BFC88F856
:1038900000905046BDE8F087F40C00200020024064
:1038A0000348416941F00041416100207047000038
:1038B000002002402DE9FF5F074614461D46002602
:1038C000DFF8A48098F8000001280CD0012088F8C7
:1038D00000004CF25030FFF7ABFC83465FEA0B0070
:1038E000B14604D039E004B0022000F041B8C8F875
:1038F0000490DFF878A0DAF8000010F4806F09D0A7
:10390000DAF8000020F48060CAF80000022088F88D
:103910001C0001E088F81C9027B1012F09D0022F6C
:1039200007D00DE022462B460198FFF75BFC0126ED
:1039300006E021460198FFF763FC022F00D17E04C8
:103940004CF25030FFF774FC834626B1DAF81400CD
:10395000B043CAF81400FFF7D5FB88F8009004B014
:10396000584600F005B80000F40C0020002002408A
:1039700030BCBDE8C09F0000002007494A6912F032
:10398000004F08D0054A8A60054A8A60496911F0EB
:10399000004F00D0012070470020024023016745FE
:1039A000AB89EFCD7047000010B504490A680242A8
:1039B00002D00860FFF7F6FF10BD000014040140BC
:1039C0002DE9F84F00220B68002B7CD0DFF8049221
:1039D000DFF8FC814FF0030E0F2709F1040A0123E1
:1039E000D1F800C003FA02F50CEA0503002B6BD0F6
:1039F000D1F804C0BCF1020F02D0BCF1120F12D1F9
:103A00004FEAD20C00EB8C0CDCF820605407E40E7B
:103A100007FA04FB26EA0B06D1F810B00BFA04F4FF
:103A20003443CCF8204006684FEA420C0EFA0CF4FE
:103A3000A64391F804B00BF0030B0BFA0CFB4BEA16
:103A4000060606604E68012E05D0022E03D0112E08
:103A500001D0122E11D18668A643D1F80CB00BFA12
:103A60000CFB4BEA06068660466826EA05050E79D9
:103A7000C6F30016964035434560C56825EA040440
:103A80008D6805FA0CFC4CEA040CC0F80CC0D1F8A7
:103A900004C01CF0805F7CD0D8F860C04CF0010CF2
:103AA000C8F860C0D8F860C00CF0010CCDF800C0B8
:103AB00022F0030C0CF1804505F58035D5F808C0DF
:103AC0009407240F01E069E063E007FA04F62CEAAA
:103AD0000606B0F1904F66D0A0F1904CBCF5806C1A
:103AE0005ED0A0F1904CBCF5006C5FD0A0F1904C82
:103AF000BCF5406C5DD0A0F1904CBCF5805C5BD017
:103B0000A0F1904CBCF5A05C59D0A0F1904CBCF554
:103B1000C05C57D0A0F1904CBCF5E05C55D04FF0A4
:103B2000080C0CFA04FC4CEA060CC5F808C0D9F8DD
:103B300000C02CEA030C4C6814F4803F01D04CEA1E
:103B4000030CC9F800C0DAF800C02CEA030C4C687A
:103B500014F4003F01D04CEA030CCAF800C01E4C1C
:103B6000D4F800C02CEA030C4D6815F4801F01D076
:103B70004CEA030CC4F800C0184CD4F800C02CEA7E
:103B8000030C4D6815F4001F01D04CEA030CC4F877
:103B900000C0521C0B68D3407FF421AF00F020B866
:103BA0004FF0010CBDE74FF0000CBAE74FF0020CEC
:103BB000B7E74FF0030CB4E74FF0040CB1E74FF058
:103BC000050CAEE74FF0060CABE74FF0070CA8E78B
:103BD0000010024000040140080401400C040140B0
:103BE00018BCBDE8E08F42690A4201D0816270478B
:103BF00081617047002A01D08161704781627047FE
:103C00000148806870470000E80C00200248816885
:103C10004268114481607047E80C002010B5002410
:103C2000032000F0B3F8002000F008F808B10124E8
:103C300001E000F03DF8204610BD000000B587B05F
:103C400001460022372000F06DF8372000F05CF8C4
:103C50001348816D41F020018165806D00F02000E6
:103C6000009001A902A800F0C1FC00F0E3FC0D499E
:103C7000B0FBF1F0411E0D480B4A026040F2E73202
:103C8000C260416000210161816001F006FD10B158
:103C900007B0012000BD054801F050FD07B000BD90
:103CA0000010024040420F0000140040144906205A
:103CB00082B00B48016E41F001010166016E01F016
:103CC00001010191816D41F080518165806D00F0AD
:103CD0008050019000220F21901E02B000F022B807
:103CE0000010024000280EDB00F01F01012202FA42
:103CF00001F14009800000F1E020C0F88011BFF31D
:103D00004F8FBFF36F8F704700280ADB00F01F0151
:103D1000012202FA01F14009800000F1E020C0F820
:103D20000011704710B4184B1B68C3F30223C3F192
:103D3000070CBCF1040F01D94FF0040C1C1D072C1B
:103D400001D2002300E0DB1E012404FA0CFCACF1DC
:103D5000010C0CEA0101994004FA03F35B1E1A40BE
:103D60001143002806DB00F1E020090180F800146F
:103D700010BC704700F00F0000F1E020090180F84E
:103D8000141D10BC704700000CED00E000F00700AF
:103D9000064A11684FF6FF03194041EA002040F03F
:103DA000FD7040F080601060704700000CED00E096
:103DB00033493222334B09684A43334900280AD039
:103DC000B0F5007F31D0086820F4C06040F4806016
:103DD000086000207047086800F4C060B0F5806F8C
:103DE00006D0D1F8800020F48070C1F88000F0E7A0
:103DF000D1F8800020F48070C1F88000086820F4B9
:103E0000C06040F400700860B2FBF3F0401C00E0BA
:103E1000401E4A6912F4806F01D00028F8D1486929
:103E200010F4806FD5D003207047086800F4C0609C
:103E3000B0F5806F06D0D1F8800040F48070C1F8F2
:103E40008000C6E7D1F8800040F48070C1F880009F
:103E5000086820F4C06040F400700860B2FBF3F022
:103E6000401C00E0401E4A6912F4806F01D0002817
:103E7000F8D1486910F4806FABD003207047000080
:103E8000140D002040420F000070004009480168F6
:103E900001F4C061B1F5806F07D0D0F8800010F454
:103EA000807F05D04FF4007070474FF480607047FA
:103EB00000207047007000400248016841F48071A2
:103EC00001607047007000400648016821F007015A
:103ED00041F0030101600448016841F00401016000
:103EE00030BF70470070004010ED00E02DE9F84F42
:103EF0000446002500262088FF4F10F4006F0ED0E6
:103F0000E06E402819D003DCE0B1202804D11FE086
:103F1000602802D0802800D0012505B32E462088D5
:103F200010F4805F2DD0206FB0F5007F35D01FDCFE
:103F300090B3B0F5807F21D13AE0F86840F480304A
:103F4000F860EAE70021201D02F0FCF90546E4E7ED
:103F5000002104F1200002F0A5FA0546DDE7D7F8BC
:103F60009C00E16E20F0E0000843C7F89C00D6E713
:103F7000B0F5407F03D0B0F5806F00D00125F5B1DA
:103F80002E46206810F4003F4ED04FF00008B86D68
:103F900010F0805F1CD025E004E0F86840F4803029
:103FA000F860ECE70021201D02F0CCF90546E6E7B9
:103FB000002104F1200002F075FA0546DFE7D7F88A
:103FC0009C00216F20F4E0600843C7F89C00D8E70C
:103FD000B86D40F08050B865B86D00F0805000902A
:103FE0004FF00108DFF814A3DAF8000040F4807005
:103FF000CAF80000FFF704FE8146DAF8000010F46A
:10400000807F0CD1FFF7FCFDA0EB0900022801D94D
:10401000032504E0DAF8000010F4807FF2D025B127
:104020002E46B8F1010F42D045E0D7F8900000F4D9
:104030004070A8B1D4F89810814211D0D7F8900000
:1040400020F44070D7F8901041F48031C7F89010F8
:10405000D7F8901021F48031C7F89010C7F890007D
:1040600010F0010F16D0FFF7CBFD8146D7F8900076
:1040700010F0020F0ED141F2883AFFF7C1FDA0EB1C
:104080000900504501D9032504E0D7F8900010F04D
:10409000020FF2D00DB12E46C3E7D7F89000D4F846
:1040A000981020F440700843C7F89000B9E7B86D45
:1040B00020F08050B865207810F0010F07D0D7F8B5
:1040C0008800E16B20F003000843C7F888002078DF
:1040D00010F0020F07D0D7F88800216C20F00C00F8
:1040E0000843C7F88800207810F0040F07D0D7F8ED
:1040F0008800616C20F030000843C7F88800207801
:1041000010F0080F07D0D7F88800A16C20F0C0008D
:104110000843C7F88800207810F0100F07D0D7F8B0
:104120008800E16C20F440700843C7F888002078CC
:1041300010F0200F07D0D7F88800216D20F44060E0
:104140000843C7F88800208810F4007F07D0D7F80C
:104150008800616E20F440200843C7F8880020885A
:1041600010F4806F07D0D7F88800A16E20F44010BB
:104170000843C7F88800207810F0400F07D0D7F820
:104180008800616D20F440500843C7F8880020780B
:1041900010F0800F07D0D7F88800A16D20F44040C0
:1041A0000843C7F88800208810F4807F07D0D7F82C
:1041B0008800E16D20F440300843C7F8880020688B
:1041C00010F4801F07D0D7F89C00216E20F0030068
:1041D0000843C7F89C00208810F4005F1CD0D7F873
:1041E0008800616F20F040600843C7F88800606F66
:1041F000B0F1006F03D0B0F1806F05D00CE0F8682B
:1042000040F48010F86007E00121201D02F09AF8C8
:104210000546280000D02E46206810F4002F35D027
:10422000A06FB0F5804F18D0D7F89C0020F48040E4
:10423000C7F89C00D7F88800A16F20F040600843C1
:10424000C7F88800A06FB0F1006F0DD0B0F5804FB7
:104250000FD0B0F1806F11D018E0D7F89C0040F477
:104260008040C7F89C00EDE7F86840F48010F860E3
:104270000CE0F86840F48030F86007E00121201D70
:1042800002F060F80546280000D02E46206810F4A1
:10429000802F1CD0D7F88800E16F20F040600843E1
:1042A000C7F88800E06FB0F1006F03D0B0F1806F05
:1042B00005D00CE0F86840F48010F86007E00121B8
:1042C000201D02F03FF80546280000D02E46208829
:1042D00010F4804F1AD0D7F88800D4F8801020F05E
:1042E00040500843C7F88800D4F88000B0F1805FE0
:1042F0000CD10221201D03E000100240007000409C
:1043000002F020F80546280000D02E46206810F460
:10431000803F08D0D7F89C00D4F8841020F0040027
:104320000843C7F89C00206810F4001F08D0D7F895
:104330009C00D4F8881020F018000843C7F89C00AF
:10434000206810F4800F28D0386820F08050386042
:10435000FFF756FC8046386810F0005F0BD0FFF77F
:104360004FFCA0EB0800022801D9032503E03868C0
:1043700010F0005FF3D175B9D7F89C00D4F88C1019
:1043800020F440300843C7F89C00022104F12000CB
:1043900002F088F8054605B12E46206810F4000F9B
:1043A00014D0D7F89C00D4F8901020F48050084323
:1043B000C7F89C00D4F89000B0F5805F06D10121C9
:1043C00004F1200002F06EF800B10646206810F0FB
:1043D000807F11D0D7F89C00D4F8941020F44010BE
:1043E0000843C7F89C00D4F89400B0F5001F03D12F
:1043F000F86840F48010F860304600F000B818BC4F
:10440000BDE8E08F2DE9F04704460D460026002C5C
:1044100017D0DFF8C091D9F8000000F00F00A842D3
:1044200012D2D9F8000020F00F002843C9F800008C
:10443000D9F8000000F00F00A84205D00120BDE827
:10444000F0870120BDE8F0872078634F10F0010F5E
:1044500071D06068DFF88481032807D002282BD050
:1044600088B3386810F4806F5BD031E0386810F0A2
:10447000007F0ED002F0C6F8404534D9B86810F07D
:10448000F00F09D0207810F0020F2CD0A06858B19E
:1044900029E00120BDE8F087B86820F0F00040F086
:1044A0008000B86080261EE0B86820F0F00040F080
:1044B0008000B860802616E0386810F4003F07D10D
:1044C0000120BDE8F087FFE7386810F0020F25D023
:1044D00000F0D4F8404506D9B86820F0F00040F06C
:1044E0008000B8608026B868616820F00300084347
:1044F000B860FFF785FB8046B868616800F00C0083
:10450000B0EB810F17D041F2883AFFF779FBA0EBAF
:104510000800504508D90320BDE8F0870120BDE818
:10452000F0870120BDE8F087B868616800F00C00F2
:10453000B0EB810FE9D1207810F0020F06D0B868F7
:10454000A16820F0F0000843B86005E0802E03D198
:10455000B86820F0F000B860D9F8000000F00F0053
:10456000A8420FD9D9F8000020F00F002843C9F85D
:104570000000D9F8000000F00F00A84202D001208E
:10458000BDE8F087207810F0040F05D0B868E16826
:1045900020F4E0600843B860207810F0080F06D0DF
:1045A000B868216920F4605040EAC100B86000F0AA
:1045B00065F8B9680A4AC1F30311515C01F01F01A3
:1045C000C8400849086008480068BDE8F047FFF7A0
:1045D00035BB0000002002400010024000B4C404BB
:1045E00040E20208140D0020E80C00200F220260B7
:1045F0000B4A936803F003034360936803F0F003EE
:104600008360936803F4E063C360926802F46052CD
:10461000D20802610348006800F00F00086070478C
:10462000001002400020024001480068704700006E
:10463000140D002000B5FFF7F7FF05498968054A0A
:10464000C1F30221515C01F01F01C84000BD000010
:104650000010024080E2020800B5FFF7E5FF0549BF
:104660008968054AC1F3C221515C01F01F01C840AD
:1046700000BD00000010024080E2020830B40022B9
:104680000020DFF8A8C0DCF8081001F00C01DCF80D
:104690000C3003F00303264C6510002908D00C29C8
:1046A00001D1012B04D0042917D0082917D017E015
:1046B000DCF8002012F0080F08D0DCF80020C2F36C
:1046C00003121C4B53F8222029B109E0DCF8942096
:1046D000C2F30322F5E7104602E0204600E0284638
:1046E0000C291CD1DCF80C0000F00300022818D0C3
:1046F000032818D01046DCF80C10C1F30311491C34
:10470000DCF80C20C2F306225043B0FBF1F0DCF8D9
:104710000C10C1F34161491C4900B0FBF1F030BC01
:1047200070472046E7E72846E5E700000010024012
:104730000024F40050E202082DE9F8430446002C5E
:104740000ED0FC4EB06800F00C05F06800F00307D6
:10475000207810F0100F72D0B5B10C2D03D004E00A
:104760000120BDE8F883012F0ED0A069002870D089
:10477000306840F001003060FFF742FA8046306850
:1047800010F0020F5CD069E0306810F0020F01D029
:10479000A06940B1206A316811F0080F06D0316875
:1047A00001F0F00107E00120BDE8F883D6F894108D
:1047B00001F470610909884217D901F05FFF10B157
:1047C0000120BDE8F883306840F0080030603068B0
:1047D000216A20F0F000084330607068E16920F43D
:1047E0007F4040EA0120706017E0306840F0080028
:1047F00030603068216A20F0F00008433060706853
:10480000E16920F47F4040EA01207060206A01F0F5
:1048100035FF10B10120BDE8F883FFF72FFFB16825
:10482000C54AC1F30311515C01F01F01C840C349DF
:104830000860C3480068FFF701FA0028EBD137E0B1
:10484000FFF7DEF9A0EB0800022803D90320BDE83A
:10485000F88315E0306810F0020FF1D0306840F0B6
:10486000080030603068216A20F0F00008433060B2
:104870007068E16920F47F4040EA0120706017E031
:10488000306820F001003060FFF7BAF980463068E8
:1048900010F0020F0CD0FFF7B3F9A0EB08000228CC
:1048A00002D90320BDE8F883306810F0020FF2D17E
:1048B000207810F0010F57D0082D1CD00C2D01D1FD
:1048C000032F18D06068B0F5803F1DD0B0F5A02F41
:1048D0001FD0306820F480303060306820F48020B1
:1048E0003060606860B3FFF78BF98046306810F481
:1048F000003F17D038E0306810F4003F34D06068D3
:1049000090BB0120BDE8F883306840F4803030600F
:10491000E7E7306840F480203060306840F4803051
:104920003060DEE7FFF76CF9A0EB0800642802D9DD
:104930000320BDE8F883306810F4003FF2D013E0A4
:10494000FFF75EF98046306810F4003F0CD0FFF7A7
:1049500057F9A0EB0800642802D90320BDE8F883CA
:10496000306810F4003FF2D1207810F0020F50D0E0
:10497000042D11D00C2D01D1022F0DD0E06880B391
:10498000306840F480703060FFF73AF907463068CD
:1049900010F4806F11D01CE0306810F4806F01D0EB
:1049A000E06838B17068217C20F0FE4040EA016088
:1049B00070602EE00120BDE8F883FFF721F9C01BED
:1049C000022802D90320BDE8F883306810F4806F14
:1049D000F3D07068217C20F0FE4040EA01607060F6
:1049E00017E0FFE7306820F480703060FFF708F9C7
:1049F0000746306810F4806F0BD0FFF701F9C01B39
:104A0000022802D90320BDE8F883306810F4806FD3
:104A1000F3D1207810F0080F38D06069D8B1D6F8FB
:104A2000940040F00100C6F89400FFF7E9F807464B
:104A3000D6F8940010F0020F28D1FFF7E1F8C01B60
:104A4000022802D90320BDE8F883D6F8940010F0BC
:104A5000020FF2D01AE0D6F8940020F00100C6F858
:104A60009400FFF7CDF80746D6F8940010F0020F37
:104A70000CD0FFF7C5F8C01B022802D90320BDE8FF
:104A8000F883D6F8940010F0020FF2D1207810F0DD
:104A9000040F75D04FF00008B06D10F0805F09D1A1
:104AA000B06D40F08050B065B06D00F08050009067
:104AB0004FF00108DFF88C90D9F8000010F4807FE7
:104AC0001AD1D9F8000040F48070C9F80000FFF74F
:104AD00097F80746D9F8000010F4807F0CD1FFF753
:104AE0008FF8C01B022802D90320BDE8F883D9F84B
:104AF000000010F4807FF2D0A068012824D005289F
:104B000029D0D6F8900020F00100C6F89000D6F821
:104B1000900020F00400C6F89000A06841F28839A7
:104B200078B3FFF76DF80746D6F8900010F0020F43
:104B30001ED042E00010024040E20208140D0020A6
:104B4000E80C002000700040D6F8900040F0010012
:104B5000C6F89000E1E7D6F8900040F00400C6F8EF
:104B60009000D6F8900040F00100C6F89000D4E71D
:104B7000FFF746F8C01B484504D90320BDE8F88379
:104B800022E005E0D6F8900010F0020FF0D014E01B
:104B9000FFF736F80746D6F8900010F0020F0CD059
:104BA000FFF72EF8C01B484502D90320BDE8F88363
:104BB000D6F8900010F0020FF2D1B8F1010F03D136
:104BC000B06D20F08050B065207810F0200F38D004
:104BD000606AD8B1D6F8980040F00100C6F8980095
:104BE000FFF70EF80746D6F8980010F0020F28D10C
:104BF000FFF706F8C01B022802D90320BDE8F8839E
:104C0000D6F8980010F0020FF2D01AE0D6F898000B
:104C100020F00100C6F89800FEF7F2FF0746D6F82C
:104C2000980010F0020F0CD0FEF7EAFFC01B02281C
:104C300002D90320BDE8F883D6F8980010F0020FDF
:104C4000F2D1A06AF0B34FF0FF370C2D7AD00228D2
:104C500008D0306820F080703060306810F0205F3D
:104C600051D054E0306820F080703060FEF7C8FF0B
:104C70000546306810F0007F0BD0FEF7C1FF401BE7
:104C8000022802D90320BDE8F883306810F0007FC5
:104C9000F3D1216BE06A491E40EA0110616BA28FDB
:104CA000090207EB520241EA4251084394F84010CE
:104CB00007EB510140EA416094F8381040EAC160C6
:104CC000F16800E071E03A4A11400843F060306852
:104CD00040F080703060F06840F08070F060FEF767
:104CE0008FFF0446306810F0007F5ED1FEF788FF2A
:104CF000001B022802D90320BDE8F883306810F0B9
:104D0000007FF3D051E0F06820F00300F060F0681D
:104D100020F4881020F08070F060FEF771FF0446E8
:104D2000306810F0007F40D0FEF76AFF001B0228B9
:104D300003D90320BDE8F88304E0306810F0007F59
:104D4000F2D132E001282DD0F068E26A00F00301D0
:104D5000914224D1226B00F0F001521EB1EB021FF0
:104D60001DD1626B00F4FE41B1EB022F17D194F814
:104D7000382000F07841B1EBC26F10D1A28F00F45F
:104D8000C00107EB5202B1EB425F08D194F840102A
:104D900000F0C06007EB5101B0EB416F05D001207E
:104DA000BDE8F8830120BDE8F8830020BDE8F88362
:104DB0000C809D010068503000EB81000068704756
:104DC00081B0006850300090009800EB81000090A6
:104DD0000098026001B070472DE9F041044694F854
:104DE0002000012822D0012684F82060022084F8C7
:104DF00021002168CA204862216853204862206847
:104E0000816821F4806181602068816821F480419B
:104E10008160FEF7F5FE05462068C0684FF0000788
:104E200010F0040F4FF0FF0803D017E00220BDE898
:104E3000F081FEF7E5FE401BB0F57A7F09D92068C6
:104E4000C0F82480032084F8210084F82070BDE895
:104E5000F0812068C06810F0040FEAD02068C0F824
:104E6000248084F8216084F820700020BDE8F0815F
:104E70002DE9F04704468946924694F8200001281F
:104E800021D0012684F82060022084F821002168C6
:104E9000CA2048622168532048622068816821F452
:104EA000806181602068C16801F0800161F49061D7
:104EB000C1602068C0684FF0000710F0400F4FF04D
:104EC000FF0803D01FE00220BDE8F087FEF798FE40
:104ED00005462068C06810F0040F14D1FEF790FE5C
:104EE000401BB0F57A7F09D92068C0F824800320E0
:104EF00084F8210084F82070BDE8F0872068C0683D
:104F000010F0040FEAD02068C0F81490206881687F
:104F100021F0070141EA0A0181600F48016841F46C
:104F2000801101600D48016841F480110160206822
:104F3000816841F4804181602068816841F480612A
:104F400081602068C0F8248084F8216084F8207093
:104F50000020BDE8F0870000000401400804014083
:104F60007047000010B504460A494FF480100860ED
:104F70002168C86810F4806F08D0C86800F080000D
:104F800060F49060C8602046FFF7EAFF012084F8D3
:104F9000210010BD1404014000B50B4600684068B4
:104FA00020F0C00121F07F41080CD870C1F3042C1F
:104FB00083F801C001F03F0C83F802C0C1F3423115
:104FC0001970002A0AD101F0A4FBD870587801F0BA
:104FD000A0FB5870987801F09CFB9870002000BDF1
:104FE00000B50B460168896A596001680969C1F317
:104FF0000E019960006800680E490140C1F3054048
:105000001870C1F3062C83F801C001F07F0C83F8FF
:1050100002C0890DD970002A0AD101F07AFB1870FC
:10502000587801F076FB5870987801F072FB987010
:10503000002000BD7F7F7F0010B504460120002CBA
:1050400046D094F8210028B9002084F8200020469A
:1050500000F040F8022084F821002168CA2048624C
:10506000216853204862204601F058FC00282FD1C7
:105070002068816821F0400121F4E001816020680E
:1050800081686268A369114322691A4311438160F0
:105090002168E068086120680169228941EA0241CB
:1050A0000161204601F05EFC002811D12168CA6C24
:1050B00022F00302CA646269E1690A432168CB6C89
:1050C0001A43CA642268FF215162012184F8211029
:1050D00010BD00000068A0F18041B1F5205104D15D
:1050E0000248016841F4004101607047901002409D
:1050F00070B504460B4694F82000012807D001261D
:1051000084F82060022084F8210012B109E0022016
:1051100070BD587810F0100F03D000F0EF000A3087
:105120005870AAB19878D9781A7840EA014059782D
:10513000090241EA423140EA01052168CA20486279
:10514000216853204862204601F0E8FB88B119E04D
:10515000D87801F0E7FA0204587801F0E3FA42EA5D
:105160000022987801F0DEFA1978104340EA4135C0
:10517000E3E7216825F0C00020F07F40486020462A
:1051800001F0F0FB2268FF21516208B984F8216028
:10519000002184F8201070BD2DE9F04104460D4631
:1051A000904694F82000012811D0012784F820703F
:1051B000022084F821002168CA2048622168532017
:1051C0004862204601F0AAFB002618B140E0022008
:1051D000BDE8F081B8F1000F05D02068806810F0BC
:1051E000400F18D116E02068806810F0400F00D101
:1051F000EE70287801F096FA0204687801F092FACD
:1052000042EA0022A87801F08DFAE978104340EADA
:1052100081500AE0EE70A8782978EA7840EA0140E7
:105220006978090241EA825108430E490840216821
:1052300008602068816821F4802181602969E8681C
:1052400001432068826811438160204601F08AFB97
:105250002268FF21516208B984F8217084F8206027
:10526000BDE8F0817F7F7F0070B504462068C1688B
:1052700021F0A001C160FEF7C3FC05462068C068AC
:1052800010F0200F0CD1FEF7BBFC401BB0F57A7F6D
:1052900001D9032070BD2068C06810F0200FF2D043
:1052A000002070BD03480068C16841F00101C16081
:1052B0007047000014490620704790F85D00704761
:1052C00038B5044621684A68886810F0400F0BD151
:1052D00010F0010F08D012F0400F05D0E16C01B0C2
:1052E0002046BDE83040084710F0020F08D012F009
:1052F000800F05D0216D01B02046BDE83040084741
:1053000000F0200300F0400C53EA0C0302D110F42B
:10531000807F56D012F0200F53D010F0400F0AD0EB
:1053200094F85D30032B4DD0236E43F004032366C5
:10533000CB688B68009310F0200F09D0236E43F0E8
:10534000010323668B6800930B6823F040030B6016
:1053500010F4807F06D0206E40F0080020662068A0
:1053600080680090206E00282BD02068416821F0D2
:10537000E0014160012084F85D0002F0020002F0CB
:105380000101084322D02068416821F003014160F7
:10539000104DA06D40B18563A06DFEF791F818B176
:1053A000206E40F040002066606D002809D08563C3
:1053B000606DFEF785F8002803D0206E40F04000B5
:1053C000206638BDC8688868009038BD2046FFF761
:1053D00073FF38BDB96D020870B50446002C05D0C6
:1053E0000025A56294F85D0010B106E0012070BDB3
:1053F00084F85C50204600F04DF8022384F85D30BC
:105400002068016821F040010160E068B0F5E06FBC
:1054100001D9002101E04FF48051B0F5706F03D045
:10542000B0F5E06F00D0A562D4F830C00122BCF125
:10543000000F05D1B0F5E06F01D9236300E02263CE
:10544000A3686068D4F814C01843236943EA0C03C6
:105450001843238B03F400731843E3691843236A4A
:105460001843A36A184323681860636B606AD4F812
:1054700018C003430426E06806EA1C4C40EA0C000E
:105480001843084321684860256684F85D200020A1
:1054900070BD000010B586B00168A1F18040B0F584
:1054A000983046D12448C16C41F00101C164C16CFF
:1054B00001F001010091C16C41F00101C164C16CB6
:1054C00001F001010091C16C41F00101C164C16CA6
:1054D00001F001010091016E41F480510166006EFE
:1054E00000F4805000902020019002200290039050
:1054F000012004900524059401A94FF09040FEF787
:105500005FFA40200190059401A94FF09040FEF70A
:1055100057FA80200190059401A94FF09040FEF7C2
:105520004FFA002211462320FEF7FCFB2320FEF752
:10553000EBFB06B010BD00000010024070470000F9
:1055400070B44FF0000C90F85C40012C0CD001249A
:1055500080F85C4090F85D4045680026012C0DD035
:10556000B5F5827F07D102E070BC022070478568E4
:105570000DB9042C02D04FF0020C3EE0D1B1CAB1FB
:10558000C3B190F85D40042C02D0052480F85D4042
:10559000066681638387C3870264A0F84430A0F85D
:1055A0004630C168B1F5E06F07D91649C1641649A4
:1055B000016506E04FF0010C1FE01449C164144975
:1055C000016501D8022B05D301684A6822F4805294
:1055D0004A6004E001684A6842F480524A60016807
:1055E0004A6842F0E0024A6001680A6812F0400F1F
:1055F00003D10A6842F040020A6080F85C6070BC27
:1056000060467047496C0208E56C02087F6C02082E
:10561000176D02087047000003480068C16821F058
:105620000101C160704700001449062070477047AF
:10563000704730B490F83C20012A2BD0012480F828
:105640003C40022280F83D2003685A68D3F808C025
:10565000A3F18045B5F5963504D0A3F18045B5F5A5
:105660009A3503D122F470024D682A4322F0700269
:105670000D682A432CF0800C896841EA0C015A60BD
:105680000268916080F83D40002180F83C1030BCF9
:105690000020704730BC0220704710B50446002C33
:1056A00003D094F83D0010B107E0012010BD0020A8
:1056B00084F83C00204600F00DF8022084F83D00FC
:1056C000211D206801F026FE012084F83D00002005
:1056D00010BD000008B500681749A0F18042B2F57E
:1056E000806215D0A0F18042B2F59A3222D1086EC4
:1056F00040F400500866086E00F40050009001214C
:105700002C20FEF70FFBBDE808402C20FEF7FCBA6A
:10571000886D40F002008865886D00F002000090FE
:10572000002206211D20FEF7FDFABDE808401D20DD
:10573000FEF7EABA08BD0000001002400168CA681E
:1057400042F00102CA6001688868064A10400628D3
:1057500006D0B0F5803F03D0086840F00100086033
:1057600000207047070001000168CA6822F00102AA
:10577000CA600068016A41F21112114207D1016A40
:105780009210114203D1016821F001010160002053
:10579000704770B5044694F83C0001281AD00125E2
:1057A00084F83C50022084F83D002068826822F092
:1057B000770222F4803222F47F4282600868502807
:1057C00032D00EDC20284DD006DC00284AD010282C
:1057D0004DD147E0022070BD302843D0402846D14B
:1057E00036E060282AD0702806D0B0F5805F3ED021
:1057F000B0F5005F3BD10BE0CB684A688968206850
:1058000001F0ECFD2068816841F0770181602EE0B5
:10581000CB684A688968206801F0E0FD20688168EB
:1058200041F48041816022E0CA684968206801F043
:10583000E8FD5021206801F0DCFD18E0CA684968E5
:10584000206801F0F1FD6021206801F0D2FD0EE03A
:10585000CA684968206801F0D4FD4021206801F041
:10586000C8FD04E022680146104601F0C2FD84F83C
:105870003D50002084F83C0070BD704770B5044670
:10588000206801694FF0000511F0020F17D0C168C0
:1058900011F0020F13D0E91E01610120207720686A
:1058A000806910F0030F03D02046FFF7E6FF05E004
:1058B000204600F0ACF8204600F0AAF825772068D2
:1058C000016911F0040F18D0C16811F0040F14D051
:1058D0006FF004010161022020772068806910F4D4
:1058E000407F03D02046FFF7C8FF05E0204600F0C8
:1058F0008EF8204600F08CF825772068016911F0B9
:10590000080F18D0C16811F0080F14D06FF008010B
:105910000161042020772068C06910F0030F03D0D4
:105920002046FFF7AAFF05E0204600F070F8204669
:1059300000F06EF825772068016911F0100F18D07B
:10594000C16811F0100F14D06FF010010161082030
:1059500020772068C06910F4407F03D02046FFF70D
:105960008CFF05E0204600F052F8204600F050F889
:1059700025772068016911F0010F09D0C16811F085
:10598000010F05D06FF001010161204600F041F8E0
:105990002068016911F0800F09D0C16811F0800FF3
:1059A00005D06FF0800101612046FFF740FE2068BE
:1059B000016911F4807F09D0C16811F0800F05D012
:1059C0006FF4807101612046FFF730FE20680169A5
:1059D00011F0400F09D0C16811F0400F05D06FF0F1
:1059E00040010161204600F01DF82068016911F0B6
:1059F000200F0BD0C16811F0200F07D06FF02001ED
:105A000001612046BDE87040FFF712BE70BD7047CF
:105A100070470068A0F18041B1F5A05101D1FEF7B7
:105A2000F5B87047704790F87C10012918D0012113
:105A300080F87C102421C0F8801001680A680B6887
:105A400023F001030B6022F000510022426603683C
:105A500019602021C0F8801080F87C200020704759
:105A600002207047704770B5044694F87C00012806
:105A70001DD0012084F87C002420C4F88000206818
:105A80000568026822F0010202602068826822F044
:105A9000606211438160204601F0E8FC20680560E7
:105AA0002020C4F88000002084F87C0070BD022013
:105AB00070BD70B5044694F87C0001281DD001200B
:105AC00084F87C002420C4F88000206805680268FF
:105AD00022F0010202602068826822F060421143D5
